{
  "_format": "hh-sol-artifact-1",
  "contractName": "MultiSigGift",
  "sourceName": "contracts/MultiSigGift.sol",
  "abi": [
    {
      "inputs": [],
      "stateMutability": "nonpayable",
      "type": "constructor"
    },
    {
      "anonymous": false,
      "inputs": [
        {
          "indexed": true,
          "internalType": "bytes32",
          "name": "proposalId",
          "type": "bytes32"
        },
        {
          "indexed": true,
          "internalType": "address",
          "name": "initiator",
          "type": "address"
        }
      ],
      "name": "MultiSigGiftCancelled",
      "type": "event"
    },
    {
      "anonymous": false,
      "inputs": [
        {
          "indexed": true,
          "internalType": "bytes32",
          "name": "proposalId",
          "type": "bytes32"
        },
        {
          "indexed": true,
          "internalType": "address",
          "name": "recipient",
          "type": "address"
        },
        {
          "indexed": false,
          "internalType": "uint256",
          "name": "amount",
          "type": "uint256"
        }
      ],
      "name": "MultiSigGiftExecuted",
      "type": "event"
    },
    {
      "anonymous": false,
      "inputs": [
        {
          "indexed": true,
          "internalType": "bytes32",
          "name": "proposalId",
          "type": "bytes32"
        },
        {
          "indexed": true,
          "internalType": "address",
          "name": "initiator",
          "type": "address"
        },
        {
          "indexed": true,
          "internalType": "address",
          "name": "recipient",
          "type": "address"
        },
        {
          "indexed": false,
          "internalType": "uint256",
          "name": "amount",
          "type": "uint256"
        },
        {
          "indexed": false,
          "internalType": "uint256",
          "name": "requiredSignatures",
          "type": "uint256"
        }
      ],
      "name": "MultiSigGiftProposed",
      "type": "event"
    },
    {
      "anonymous": false,
      "inputs": [
        {
          "indexed": true,
          "internalType": "bytes32",
          "name": "proposalId",
          "type": "bytes32"
        },
        {
          "indexed": true,
          "internalType": "address",
          "name": "signer",
          "type": "address"
        },
        {
          "indexed": false,
          "internalType": "uint256",
          "name": "signatureCount",
          "type": "uint256"
        },
        {
          "indexed": false,
          "internalType": "uint256",
          "name": "requiredSignatures",
          "type": "uint256"
        }
      ],
      "name": "SignatureAdded",
      "type": "event"
    },
    {
      "inputs": [
        {
          "internalType": "bytes32",
          "name": "proposalId",
          "type": "bytes32"
        }
      ],
      "name": "cancelProposal",
      "outputs": [],
      "stateMutability": "nonpayable",
      "type": "function"
    },
    {
      "inputs": [
        {
          "internalType": "bytes32",
          "name": "proposalId",
          "type": "bytes32"
        },
        {
          "internalType": "address",
          "name": "recipient",
          "type": "address"
        },
        {
          "internalType": "uint256",
          "name": "amount",
          "type": "uint256"
        },
        {
          "internalType": "uint256",
          "name": "requiredSignatures",
          "type": "uint256"
        },
        {
          "internalType": "address[]",
          "name": "signers",
          "type": "address[]"
        },
        {
          "internalType": "uint256",
          "name": "deadline",
          "type": "uint256"
        },
        {
          "internalType": "string",
          "name": "message",
          "type": "string"
        }
      ],
      "name": "createMultiSigGift",
      "outputs": [],
      "stateMutability": "payable",
      "type": "function"
    },
    {
      "inputs": [
        {
          "internalType": "bytes32",
          "name": "proposalId",
          "type": "bytes32"
        }
      ],
      "name": "executeProposal",
      "outputs": [],
      "stateMutability": "nonpayable",
      "type": "function"
    },
    {
      "inputs": [
        {
          "internalType": "bytes32",
          "name": "proposalId",
          "type": "bytes32"
        }
      ],
      "name": "getProposal",
      "outputs": [
        {
          "components": [
            {
              "internalType": "address",
              "name": "initiator",
              "type": "address"
            },
            {
              "internalType": "address",
              "name": "recipient",
              "type": "address"
            },
            {
              "internalType": "uint256",
              "name": "amount",
              "type": "uint256"
            },
            {
              "internalType": "uint256",
              "name": "requiredSignatures",
              "type": "uint256"
            },
            {
              "internalType": "uint256",
              "name": "signatureCount",
              "type": "uint256"
            },
            {
              "internalType": "bool",
              "name": "executed",
              "type": "bool"
            },
            {
              "internalType": "bool",
              "name": "cancelled",
              "type": "bool"
            },
            {
              "internalType": "string",
              "name": "message",
              "type": "string"
            },
            {
              "internalType": "uint256",
              "name": "deadline",
              "type": "uint256"
            }
          ],
          "internalType": "struct MultiSigGift.MultiSigGiftProposal",
          "name": "",
          "type": "tuple"
        }
      ],
      "stateMutability": "view",
      "type": "function"
    },
    {
      "inputs": [
        {
          "internalType": "bytes32",
          "name": "proposalId",
          "type": "bytes32"
        }
      ],
      "name": "getSignatureCount",
      "outputs": [
        {
          "internalType": "uint256",
          "name": "",
          "type": "uint256"
        }
      ],
      "stateMutability": "view",
      "type": "function"
    },
    {
      "inputs": [
        {
          "internalType": "bytes32",
          "name": "proposalId",
          "type": "bytes32"
        }
      ],
      "name": "getSignatures",
      "outputs": [
        {
          "components": [
            {
              "internalType": "address",
              "name": "signer",
              "type": "address"
            },
            {
              "internalType": "uint256",
              "name": "timestamp",
              "type": "uint256"
            }
          ],
          "internalType": "struct MultiSigGift.Signature[]",
          "name": "",
          "type": "tuple[]"
        }
      ],
      "stateMutability": "view",
      "type": "function"
    },
    {
      "inputs": [
        {
          "internalType": "bytes32",
          "name": "proposalId",
          "type": "bytes32"
        },
        {
          "internalType": "address",
          "name": "signer",
          "type": "address"
        }
      ],
      "name": "hasAddressSigned",
      "outputs": [
        {
          "internalType": "bool",
          "name": "",
          "type": "bool"
        }
      ],
      "stateMutability": "view",
      "type": "function"
    },
    {
      "inputs": [
        {
          "internalType": "bytes32",
          "name": "",
          "type": "bytes32"
        },
        {
          "internalType": "address",
          "name": "",
          "type": "address"
        }
      ],
      "name": "hasSigned",
      "outputs": [
        {
          "internalType": "bool",
          "name": "",
          "type": "bool"
        }
      ],
      "stateMutability": "view",
      "type": "function"
    },
    {
      "inputs": [],
      "name": "owner",
      "outputs": [
        {
          "internalType": "address",
          "name": "",
          "type": "address"
        }
      ],
      "stateMutability": "view",
      "type": "function"
    },
    {
      "inputs": [
        {
          "internalType": "bytes32",
          "name": "",
          "type": "bytes32"
        }
      ],
      "name": "proposals",
      "outputs": [
        {
          "internalType": "address",
          "name": "initiator",
          "type": "address"
        },
        {
          "internalType": "address",
          "name": "recipient",
          "type": "address"
        },
        {
          "internalType": "uint256",
          "name": "amount",
          "type": "uint256"
        },
        {
          "internalType": "uint256",
          "name": "requiredSignatures",
          "type": "uint256"
        },
        {
          "internalType": "uint256",
          "name": "signatureCount",
          "type": "uint256"
        },
        {
          "internalType": "bool",
          "name": "executed",
          "type": "bool"
        },
        {
          "internalType": "bool",
          "name": "cancelled",
          "type": "bool"
        },
        {
          "internalType": "string",
          "name": "message",
          "type": "string"
        },
        {
          "internalType": "uint256",
          "name": "deadline",
          "type": "uint256"
        }
      ],
      "stateMutability": "view",
      "type": "function"
    },
    {
      "inputs": [
        {
          "internalType": "bytes32",
          "name": "proposalId",
          "type": "bytes32"
        }
      ],
      "name": "signProposal",
      "outputs": [],
      "stateMutability": "nonpayable",
      "type": "function"
    },
    {
      "inputs": [
        {
          "internalType": "bytes32",
          "name": "",
          "type": "bytes32"
        },
        {
          "internalType": "uint256",
          "name": "",
          "type": "uint256"
        }
      ],
      "name": "signatures",
      "outputs": [
        {
          "internalType": "address",
          "name": "signer",
          "type": "address"
        },
        {
          "internalType": "uint256",
          "name": "timestamp",
          "type": "uint256"
        }
      ],
      "stateMutability": "view",
      "type": "function"
    },
    {
      "inputs": [],
      "name": "totalProposals",
      "outputs": [
        {
          "internalType": "uint256",
          "name": "",
          "type": "uint256"
        }
      ],
      "stateMutability": "view",
      "type": "function"
    }
  ],
  "bytecode": "0x608060405234801561001057600080fd5b50600380546001600160a01b0319163317905561176d806100326000396000f3fe6080604052600436106100c25760003560e01c806374400fd11161007f5780639bc51068116100595780639bc51068146102b6578063a78d80fc146102e3578063c59762e9146102f9578063fdd886f51461031957600080fd5b806374400fd11461021f5780638da5cb5b1461025e578063980ff6c61461029657600080fd5b806316218011146100c757806329832c0f146101225780632bbe96bc1461015d57806332ed5b121461019b57806337376ca8146101d0578063430694cf146101f2575b600080fd5b3480156100d357600080fd5b5061010d6100e236600461116f565b60009182526001602090815260408084206001600160a01b0393909316845291905290205460ff1690565b60405190151581526020015b60405180910390f35b34801561012e57600080fd5b5061010d61013d36600461116f565b600160209081526000928352604080842090915290825290205460ff1681565b34801561016957600080fd5b5061018d61017836600461119b565b60009081526020819052604090206004015490565b604051908152602001610119565b3480156101a757600080fd5b506101bb6101b636600461119b565b61032c565b604051610119999897969594939291906111fa565b3480156101dc57600080fd5b506101f06101eb36600461119b565b610414565b005b3480156101fe57600080fd5b5061021261020d36600461119b565b610625565b6040516101199190611264565b34801561022b57600080fd5b5061023f61023a366004611309565b61078c565b604080516001600160a01b039093168352602083019190915201610119565b34801561026a57600080fd5b5060035461027e906001600160a01b031681565b6040516001600160a01b039091168152602001610119565b3480156102a257600080fd5b506101f06102b136600461119b565b6107d2565b3480156102c257600080fd5b506102d66102d136600461119b565b6108e8565b604051610119919061132b565b3480156102ef57600080fd5b5061018d60045481565b34801561030557600080fd5b506101f061031436600461119b565b610970565b6101f061032736600461143a565b610b0c565b60006020819052908152604090208054600182015460028301546003840154600485015460058601546006870180546001600160a01b0397881698979096169694959394929360ff808416946101009094041692919061038b90611542565b80601f01602080910402602001604051908101604052809291908181526020018280546103b790611542565b80156104045780601f106103d957610100808354040283529160200191610404565b820191906000526020600020905b8154815290600101906020018083116103e757829003601f168201915b5050505050908060070154905089565b60008181526020819052604090205481906001600160a01b03166104535760405162461bcd60e51b815260040161044a9061157c565b60405180910390fd5b600082815260208190526040902080546001600160a01b031633148061048357506003546001600160a01b031633145b6104c05760405162461bcd60e51b815260206004820152600e60248201526d139bdd08185d5d1a1bdc9a5e995960921b604482015260640161044a565b600581015460ff16156104e55760405162461bcd60e51b815260040161044a906115b3565b6005810154610100900460ff161561053f5760405162461bcd60e51b815260206004820152601a60248201527f50726f706f73616c20616c72656164792063616e63656c6c6564000000000000604482015260640161044a565b60058101805461ff001916610100179055805460028201546040516000926001600160a01b031691908381818185875af1925050503d80600081146105a0576040519150601f19603f3d011682016040523d82523d6000602084013e6105a5565b606091505b50509050806105e65760405162461bcd60e51b815260206004820152600d60248201526c1499599d5b990819985a5b1959609a1b604482015260640161044a565b81546040516001600160a01b039091169085907f397d5f3e38092778c729d2b7e54adef450a72f99e264ff272fc774e35f52eb4890600090a350505050565b604080516101208101825260008082526020820181905291810182905260608082018390526080820183905260a0820183905260c0820183905260e08201526101008101919091526000828152602081815260409182902082516101208101845281546001600160a01b039081168252600183015416928101929092526002810154928201929092526003820154606082015260048201546080820152600582015460ff808216151560a084015261010090910416151560c082015260068201805491929160e0840191906106f990611542565b80601f016020809104026020016040519081016040528092919081815260200182805461072590611542565b80156107725780601f1061074757610100808354040283529160200191610772565b820191906000526020600020905b81548152906001019060200180831161075557829003601f168201915b505050505081526020016007820154815250509050919050565b600260205281600052604060002081815481106107a857600080fd5b6000918252602090912060029091020180546001909101546001600160a01b039091169250905082565b60008181526020819052604090205481906001600160a01b03166108085760405162461bcd60e51b815260040161044a9061157c565b6000828152602081905260409020600581015460ff161561083b5760405162461bcd60e51b815260040161044a906115b3565b6005810154610100900460ff161561088a5760405162461bcd60e51b8152602060048201526012602482015271141c9bdc1bdcd85b0818d85b98d95b1b195960721b604482015260640161044a565b8060030154816004015410156108da5760405162461bcd60e51b81526020600482015260156024820152744e6f7420656e6f756768207369676e61747572657360581b604482015260640161044a565b6108e383610f57565b505050565b606060026000838152602001908152602001600020805480602002602001604051908101604052809291908181526020016000905b82821015610965576000848152602090819020604080518082019091526002850290910180546001600160a01b0316825260019081015482840152908352909201910161091d565b505050509050919050565b60008181526020819052604090205481906001600160a01b03166109a65760405162461bcd60e51b815260040161044a9061157c565b6000828152602081905260409020600581015460ff16156109d95760405162461bcd60e51b815260040161044a906115b3565b6005810154610100900460ff1615610a285760405162461bcd60e51b8152602060048201526012602482015271141c9bdc1bdcd85b0818d85b98d95b1b195960721b604482015260640161044a565b600083815260016020908152604080832033845290915290205460ff1615610a835760405162461bcd60e51b815260206004820152600e60248201526d105b1c9958591e481cda59db995960921b604482015260640161044a565b60078101541580610a98575080600701544211155b610ad75760405162461bcd60e51b815260206004820152601060248201526f141c9bdc1bdcd85b08195e1c1a5c995960821b604482015260640161044a565b610ae18333611062565b8060030154816004015410158015610afe5750600581015460ff16155b156108e3576108e383610f57565b6001600160a01b038616610b565760405162461bcd60e51b8152602060048201526011602482015270125b9d985b1a59081c9958da5c1a595b9d607a1b604482015260640161044a565b60008511610ba65760405162461bcd60e51b815260206004820152601d60248201527f416d6f756e74206d7573742062652067726561746572207468616e2030000000604482015260640161044a565b84341015610beb5760405162461bcd60e51b8152602060048201526012602482015271496e73756666696369656e742066756e647360701b604482015260640161044a565b60008411610c455760405162461bcd60e51b815260206004820152602160248201527f4d7573742072657175697265206174206c656173742031207369676e617475726044820152606560f81b606482015260840161044a565b8383511015610c8b5760405162461bcd60e51b81526020600482015260126024820152714e6f7420656e6f756768207369676e65727360701b604482015260640161044a565b6000878152602081905260409020546001600160a01b031615610cf05760405162461bcd60e51b815260206004820152601760248201527f50726f706f73616c20616c726561647920657869737473000000000000000000604482015260640161044a565b811580610cfc57504282115b610d485760405162461bcd60e51b815260206004820152601a60248201527f446561646c696e65206d75737420626520696e20667574757265000000000000604482015260640161044a565b604051806101200160405280336001600160a01b03168152602001876001600160a01b03168152602001868152602001858152602001600081526020016000151581526020016000151581526020018281526020018381525060008089815260200190815260200160002060008201518160000160006101000a8154816001600160a01b0302191690836001600160a01b0316021790555060208201518160010160006101000a8154816001600160a01b0302191690836001600160a01b0316021790555060408201518160020155606082015181600301556080820151816004015560a08201518160050160006101000a81548160ff02191690831515021790555060c08201518160050160016101000a81548160ff02191690831515021790555060e0820151816006019081610e80919061163a565b5061010082015181600701559050506000805b8451811015610edf57336001600160a01b0316858281518110610eb857610eb86116fa565b60200260200101516001600160a01b031603610ed75760019150610edf565b600101610e93565b508015610ef057610ef08833611062565b60048054906000610f0083611710565b909155505060408051878152602081018790526001600160a01b0389169133918b917f904e353f858eaf41753e0369e2f263632bdb1712ef915aecddbe1e3bbb6cfd35910160405180910390a45050505050505050565b60008181526020819052604080822060058101805460ff19166001908117909155810154600282015492519193926001600160a01b03909116918381818185875af1925050503d8060008114610fc9576040519150601f19603f3d011682016040523d82523d6000602084013e610fce565b606091505b50509050806110115760405162461bcd60e51b815260206004820152600f60248201526e151c985b9cd9995c8819985a5b1959608a1b604482015260640161044a565b600182015460028301546040519081526001600160a01b039091169084907f2db52097c5d7c06eddd159e03a387a5bc49d60ef23453b41227bc36c4a300023906020015b60405180910390a3505050565b60008281526020818152604080832060018084528285206001600160a01b0387168652909352908320805460ff191690921790915560048101805491926110a883611710565b90915550506000838152600260208181526040808420815180830183526001600160a01b0388811680835242838701908152845460018082018755958a529887902093519890970290920180546001600160a01b03191697909116969096178655935194019390935560048401546003850154845191825291810191909152909185917f3b4d36b71c89d37eb9b606b7a2f751c1c8b10a85e3a549f957ade1b0e9d541749101611055565b80356001600160a01b038116811461116a57600080fd5b919050565b6000806040838503121561118257600080fd5b8235915061119260208401611153565b90509250929050565b6000602082840312156111ad57600080fd5b5035919050565b6000815180845260005b818110156111da576020818501810151868301820152016111be565b506000602082860101526020601f19601f83011685010191505092915050565b6001600160a01b038a811682528916602082015260408101889052606081018790526080810186905284151560a082015283151560c082015261012060e0820181905260009061124c838201866111b4565b915050826101008301529a9950505050505050505050565b6020815261127e6020820183516001600160a01b03169052565b6000602083015161129a60408401826001600160a01b03169052565b506040830151606083015260608301516080830152608083015160a083015260a08301516112cc60c084018215159052565b5060c083015180151560e08401525060e083015161012061010081818601526112f96101408601846111b4565b9501519301929092525090919050565b6000806040838503121561131c57600080fd5b50508035926020909101359150565b602080825282518282018190526000919060409081850190868401855b8281101561137657815180516001600160a01b03168552860151868501529284019290850190600101611348565b5091979650505050505050565b634e487b7160e01b600052604160045260246000fd5b604051601f8201601f1916810167ffffffffffffffff811182821017156113c2576113c2611383565b604052919050565b600082601f8301126113db57600080fd5b813567ffffffffffffffff8111156113f5576113f5611383565b611408601f8201601f1916602001611399565b81815284602083860101111561141d57600080fd5b816020850160208301376000918101602001919091529392505050565b600080600080600080600060e0888a03121561145557600080fd5b873596506020611466818a01611153565b96506040890135955060608901359450608089013567ffffffffffffffff8082111561149157600080fd5b818b0191508b601f8301126114a557600080fd5b8135818111156114b7576114b7611383565b8060051b6114c6858201611399565b918252838101850191858101908f8411156114e057600080fd5b948601945b83861015611505576114f686611153565b825294860194908601906114e5565b985050505060a08b0135945060c08b013592508083111561152557600080fd5b50506115338a828b016113ca565b91505092959891949750929550565b600181811c9082168061155657607f821691505b60208210810361157657634e487b7160e01b600052602260045260246000fd5b50919050565b60208082526017908201527f50726f706f73616c20646f6573206e6f74206578697374000000000000000000604082015260600190565b60208082526019908201527f50726f706f73616c20616c726561647920657865637574656400000000000000604082015260600190565b601f8211156108e3576000816000526020600020601f850160051c810160208610156116135750805b601f850160051c820191505b818110156116325782815560010161161f565b505050505050565b815167ffffffffffffffff81111561165457611654611383565b611668816116628454611542565b846115ea565b602080601f83116001811461169d57600084156116855750858301515b600019600386901b1c1916600185901b178555611632565b600085815260208120601f198616915b828110156116cc578886015182559484019460019091019084016116ad565b50858210156116ea5787850151600019600388901b60f8161c191681555b5050505050600190811b01905550565b634e487b7160e01b600052603260045260246000fd5b60006001820161173057634e487b7160e01b600052601160045260246000fd5b506001019056fea26469706673582212200f751b3439c218aec09fd49592047c2e1794db4a9de1754f914f91eff018c1ea64736f6c63430008180033",
  "linkReferences": {},
  "deployedLinkReferences": {}
}