{
  "_format": "hh-sol-artifact-1",
  "contractName": "ConditionalRelease",
  "sourceName": "contracts/ConditionalRelease.sol",
  "abi": [
    {
      "inputs": [],
      "stateMutability": "nonpayable",
      "type": "constructor"
    },
    {
      "anonymous": false,
      "inputs": [
        {
          "indexed": true,
          "internalType": "bytes32",
          "name": "giftId",
          "type": "bytes32"
        },
        {
          "indexed": true,
          "internalType": "address",
          "name": "sender",
          "type": "address"
        },
        {
          "indexed": true,
          "internalType": "address",
          "name": "recipient",
          "type": "address"
        },
        {
          "indexed": false,
          "internalType": "uint256",
          "name": "amount",
          "type": "uint256"
        },
        {
          "indexed": false,
          "internalType": "enum ConditionalRelease.ReleaseCondition",
          "name": "condition",
          "type": "uint8"
        },
        {
          "indexed": false,
          "internalType": "uint256",
          "name": "triggerValue",
          "type": "uint256"
        }
      ],
      "name": "ConditionalGiftCreated",
      "type": "event"
    },
    {
      "anonymous": false,
      "inputs": [
        {
          "indexed": true,
          "internalType": "bytes32",
          "name": "eventId",
          "type": "bytes32"
        }
      ],
      "name": "EventTriggered",
      "type": "event"
    },
    {
      "anonymous": false,
      "inputs": [
        {
          "indexed": true,
          "internalType": "bytes32",
          "name": "giftId",
          "type": "bytes32"
        },
        {
          "indexed": true,
          "internalType": "address",
          "name": "recipient",
          "type": "address"
        },
        {
          "indexed": false,
          "internalType": "uint256",
          "name": "amount",
          "type": "uint256"
        },
        {
          "indexed": false,
          "internalType": "enum ConditionalRelease.ReleaseCondition",
          "name": "condition",
          "type": "uint8"
        }
      ],
      "name": "GiftReleased",
      "type": "event"
    },
    {
      "anonymous": false,
      "inputs": [
        {
          "indexed": true,
          "internalType": "bytes32",
          "name": "milestoneId",
          "type": "bytes32"
        }
      ],
      "name": "MilestoneReached",
      "type": "event"
    },
    {
      "inputs": [
        {
          "internalType": "bytes32[]",
          "name": "giftIds",
          "type": "bytes32[]"
        }
      ],
      "name": "batchRelease",
      "outputs": [],
      "stateMutability": "nonpayable",
      "type": "function"
    },
    {
      "inputs": [
        {
          "internalType": "bytes32",
          "name": "giftId",
          "type": "bytes32"
        }
      ],
      "name": "canRelease",
      "outputs": [
        {
          "internalType": "bool",
          "name": "",
          "type": "bool"
        }
      ],
      "stateMutability": "view",
      "type": "function"
    },
    {
      "inputs": [
        {
          "internalType": "bytes32",
          "name": "",
          "type": "bytes32"
        }
      ],
      "name": "conditionalGifts",
      "outputs": [
        {
          "internalType": "address",
          "name": "sender",
          "type": "address"
        },
        {
          "internalType": "address",
          "name": "recipient",
          "type": "address"
        },
        {
          "internalType": "uint256",
          "name": "amount",
          "type": "uint256"
        },
        {
          "internalType": "enum ConditionalRelease.ReleaseCondition",
          "name": "condition",
          "type": "uint8"
        },
        {
          "internalType": "uint256",
          "name": "triggerValue",
          "type": "uint256"
        },
        {
          "internalType": "bool",
          "name": "released",
          "type": "bool"
        },
        {
          "internalType": "string",
          "name": "message",
          "type": "string"
        }
      ],
      "stateMutability": "view",
      "type": "function"
    },
    {
      "inputs": [
        {
          "internalType": "bytes32",
          "name": "giftId",
          "type": "bytes32"
        },
        {
          "internalType": "address",
          "name": "recipient",
          "type": "address"
        },
        {
          "internalType": "enum ConditionalRelease.ReleaseCondition",
          "name": "condition",
          "type": "uint8"
        },
        {
          "internalType": "uint256",
          "name": "triggerValue",
          "type": "uint256"
        },
        {
          "internalType": "string",
          "name": "message",
          "type": "string"
        }
      ],
      "name": "createConditionalGift",
      "outputs": [],
      "stateMutability": "payable",
      "type": "function"
    },
    {
      "inputs": [
        {
          "internalType": "bytes32",
          "name": "",
          "type": "bytes32"
        }
      ],
      "name": "events",
      "outputs": [
        {
          "internalType": "bool",
          "name": "",
          "type": "bool"
        }
      ],
      "stateMutability": "view",
      "type": "function"
    },
    {
      "inputs": [
        {
          "internalType": "bytes32",
          "name": "giftId",
          "type": "bytes32"
        }
      ],
      "name": "getGift",
      "outputs": [
        {
          "components": [
            {
              "internalType": "address",
              "name": "sender",
              "type": "address"
            },
            {
              "internalType": "address",
              "name": "recipient",
              "type": "address"
            },
            {
              "internalType": "uint256",
              "name": "amount",
              "type": "uint256"
            },
            {
              "internalType": "enum ConditionalRelease.ReleaseCondition",
              "name": "condition",
              "type": "uint8"
            },
            {
              "internalType": "uint256",
              "name": "triggerValue",
              "type": "uint256"
            },
            {
              "internalType": "bool",
              "name": "released",
              "type": "bool"
            },
            {
              "internalType": "string",
              "name": "message",
              "type": "string"
            }
          ],
          "internalType": "struct ConditionalRelease.ConditionalGift",
          "name": "",
          "type": "tuple"
        }
      ],
      "stateMutability": "view",
      "type": "function"
    },
    {
      "inputs": [
        {
          "internalType": "bytes32",
          "name": "",
          "type": "bytes32"
        }
      ],
      "name": "milestones",
      "outputs": [
        {
          "internalType": "bool",
          "name": "",
          "type": "bool"
        }
      ],
      "stateMutability": "view",
      "type": "function"
    },
    {
      "inputs": [],
      "name": "owner",
      "outputs": [
        {
          "internalType": "address",
          "name": "",
          "type": "address"
        }
      ],
      "stateMutability": "view",
      "type": "function"
    },
    {
      "inputs": [
        {
          "internalType": "bytes32",
          "name": "milestoneId",
          "type": "bytes32"
        }
      ],
      "name": "reachMilestone",
      "outputs": [],
      "stateMutability": "nonpayable",
      "type": "function"
    },
    {
      "inputs": [
        {
          "internalType": "bytes32",
          "name": "giftId",
          "type": "bytes32"
        }
      ],
      "name": "releaseGift",
      "outputs": [],
      "stateMutability": "nonpayable",
      "type": "function"
    },
    {
      "inputs": [],
      "name": "totalConditionalGifts",
      "outputs": [
        {
          "internalType": "uint256",
          "name": "",
          "type": "uint256"
        }
      ],
      "stateMutability": "view",
      "type": "function"
    },
    {
      "inputs": [],
      "name": "totalReleased",
      "outputs": [
        {
          "internalType": "uint256",
          "name": "",
          "type": "uint256"
        }
      ],
      "stateMutability": "view",
      "type": "function"
    },
    {
      "inputs": [
        {
          "internalType": "bytes32",
          "name": "eventId",
          "type": "bytes32"
        }
      ],
      "name": "triggerEvent",
      "outputs": [],
      "stateMutability": "nonpayable",
      "type": "function"
    }
  ],
  "bytecode": "0x608060405234801561001057600080fd5b50600380546001600160a01b03191633179055611687806100326000396000f3fe6080604052600436106100c25760003560e01c8063ab6d1c091161007f578063d9d7e9b611610059578063d9d7e9b61461024d578063e33b7de314610271578063e40d8c1114610287578063fc6cb095146102a757600080fd5b8063ab6d1c09146101d0578063bfdc4a61146101f0578063c8b741bb1461022057600080fd5b8063142497d3146100c757806323f00278146100dc5780634e7bd924146100fc5780637f9e3370146101385780638da5cb5b146101585780639de9aaf414610190575b600080fd5b6100da6100d53660046111a8565b6102c7565b005b3480156100e857600080fd5b506100da6100f7366004611286565b6105b9565b34801561010857600080fd5b5061011c610117366004611286565b6108f6565b60405161012f979695949392919061131d565b60405180910390f35b34801561014457600080fd5b506100da610153366004611286565b6109d1565b34801561016457600080fd5b50600354610178906001600160a01b031681565b6040516001600160a01b03909116815260200161012f565b34801561019c57600080fd5b506101c06101ab366004611286565b60016020526000908152604090205460ff1681565b604051901515815260200161012f565b3480156101dc57600080fd5b506100da6101eb366004611286565b610abc565b3480156101fc57600080fd5b506101c061020b366004611286565b60026020526000908152604090205460ff1681565b34801561022c57600080fd5b5061024061023b366004611286565b610ba4565b60405161012f9190611376565b34801561025957600080fd5b5061026360045481565b60405190815260200161012f565b34801561027d57600080fd5b5061026360055481565b34801561029357600080fd5b506101c06102a2366004611286565b610d0d565b3480156102b357600080fd5b506100da6102c23660046113ed565b610e70565b6001600160a01b0384166103165760405162461bcd60e51b8152602060048201526011602482015270125b9d985b1a59081c9958da5c1a595b9d607a1b60448201526064015b60405180910390fd5b600034116103665760405162461bcd60e51b815260206004820152601d60248201527f416d6f756e74206d7573742062652067726561746572207468616e2030000000604482015260640161030d565b6000858152602081905260409020546001600160a01b0316156103c15760405162461bcd60e51b81526020600482015260136024820152724769667420616c72656164792065786973747360681b604482015260640161030d565b60028360048111156103d5576103d561129f565b14806103f2575060018360048111156103f0576103f061129f565b145b15610446574282116104465760405162461bcd60e51b815260206004820152601960248201527f54726967676572206d75737420626520696e2066757475726500000000000000604482015260640161030d565b6040518060e00160405280336001600160a01b03168152602001856001600160a01b031681526020013481526020018460048111156104875761048761129f565b8152602080820185905260006040808401829052606093840186905289825281835290819020845181546001600160a01b039182166001600160a01b031991821617835593860151600183810180549290931691909516179055908401516002820155918301516003830180549192909160ff19169083600481111561050f5761050f61129f565b02179055506080820151600482015560a082015160058201805460ff191691151591909117905560c0820151600682019061054a908261151e565b5050600480549150600061055d836115de565b9190505550836001600160a01b0316336001600160a01b0316867fe6fa61b00510a03591880a3e9d9088994a8248f7e35e600908ac0b860969101f3487876040516105aa93929190611605565b60405180910390a45050505050565b60008181526020819052604090205481906001600160a01b03166106155760405162461bcd60e51b815260206004820152601360248201527211da599d08191bd95cc81b9bdd08195e1a5cdd606a1b604482015260640161030d565b6000828152602081905260409020600581015460ff16156106705760405162461bcd60e51b815260206004820152601560248201527411da599d08185b1c9958591e481c995b19585cd959605a1b604482015260640161030d565b6040805160e08101825282546001600160a01b0390811682526001840154166020820152600283015491810191909152600382015461078d91908390606083019060ff1660048111156106c5576106c561129f565b60048111156106d6576106d661129f565b815260048201546020820152600582015460ff161515604082015260068201805460609092019161070690611493565b80601f016020809104026020016040519081016040528092919081815260200182805461073290611493565b801561077f5780601f106107545761010080835404028352916020019161077f565b820191906000526020600020905b81548152906001019060200180831161076257829003601f168201915b505050505081525050611075565b6107d95760405162461bcd60e51b815260206004820152601760248201527f436f6e646974696f6e206e6f7420736174697366696564000000000000000000604482015260640161030d565b6005808201805460ff1916600117905580549060006107f7836115de565b9091555050600181015460028201546040516000926001600160a01b031691908381818185875af1925050503d806000811461084f576040519150601f19603f3d011682016040523d82523d6000602084013e610854565b606091505b50509050806108975760405162461bcd60e51b815260206004820152600f60248201526e151c985b9cd9995c8819985a5b1959608a1b604482015260640161030d565b6001820154600283015460038401546040516001600160a01b039093169287927fc87e68fc8dba2d480a03cd7220e1ead48c118926667fb5fdb53b409e4d014059926108e89260ff90911690611627565b60405180910390a350505050565b60006020819052908152604090208054600182015460028301546003840154600485015460058601546006870180546001600160a01b03978816989690971696949560ff948516959394929092169261094e90611493565b80601f016020809104026020016040519081016040528092919081815260200182805461097a90611493565b80156109c75780601f1061099c576101008083540402835291602001916109c7565b820191906000526020600020905b8154815290600101906020018083116109aa57829003601f168201915b5050505050905087565b6003546001600160a01b03163314610a175760405162461bcd60e51b81526020600482015260096024820152682737ba1037bbb732b960b91b604482015260640161030d565b60008181526001602052604090205460ff1615610a765760405162461bcd60e51b815260206004820152601960248201527f4d696c6573746f6e6520616c7265616479207265616368656400000000000000604482015260640161030d565b6000818152600160208190526040808320805460ff19169092179091555182917fab2350eb377308b64e4d3caacd6042c094b968fc2c2d084243dad2af8870860391a250565b6003546001600160a01b03163314610b025760405162461bcd60e51b81526020600482015260096024820152682737ba1037bbb732b960b91b604482015260640161030d565b60008181526002602052604090205460ff1615610b615760405162461bcd60e51b815260206004820152601760248201527f4576656e7420616c726561647920747269676765726564000000000000000000604482015260640161030d565b600081815260026020526040808220805460ff191660011790555182917f0b58ca7e7c664db08f6ae7172c2c427fdd1c662b942cc577d2cc54a57e53443791a250565b610be26040805160e0810182526000808252602082018190529181018290529060608201908152600060208201819052604082015260609081015290565b60008281526020818152604091829020825160e08101845281546001600160a01b039081168252600183015416928101929092526002810154928201929092526003820154909190606083019060ff166004811115610c4357610c4361129f565b6004811115610c5457610c5461129f565b815260048201546020820152600582015460ff1615156040820152600682018054606090920191610c8490611493565b80601f0160208091040260200160405190810160405280929190818152602001828054610cb090611493565b8015610cfd5780601f10610cd257610100808354040283529160200191610cfd565b820191906000526020600020905b815481529060010190602001808311610ce057829003601f168201915b5050505050815250509050919050565b600081815260208181526040808320815160e08101835281546001600160a01b03908116825260018301541693810193909352600281015491830191909152600381015483929190606083019060ff166004811115610d6e57610d6e61129f565b6004811115610d7f57610d7f61129f565b815260048201546020820152600582015460ff1615156040820152600682018054606090920191610daf90611493565b80601f0160208091040260200160405190810160405280929190818152602001828054610ddb90611493565b8015610e285780601f10610dfd57610100808354040283529160200191610e28565b820191906000526020600020905b815481529060010190602001808311610e0b57829003601f168201915b5050509190925250508151919250506001600160a01b0316610e4d5750600092915050565b8060a0015115610e605750600092915050565b610e6981611075565b9392505050565b60005b8151811015611071576000806000848481518110610e9357610e9361163b565b6020026020010151815260200190815260200160002090508060050160009054906101000a900460ff16158015610f1a57506040805160e08101825282546001600160a01b03908116825260018401541660208201526002830154918101919091526003820154610f1a91908390606083019060ff1660048111156106c5576106c561129f565b15611068576005808201805460ff191660011790558054906000610f3d836115de565b9091555050600181015460028201546040516000926001600160a01b031691908381818185875af1925050503d8060008114610f95576040519150601f19603f3d011682016040523d82523d6000602084013e610f9a565b606091505b5050905080610feb5760405162461bcd60e51b815260206004820152601d60248201527f42617463682072656c65617365207472616e73666572206661696c6564000000604482015260640161030d565b600182015484516001600160a01b03909116908590859081106110105761101061163b565b60200260200101517fc87e68fc8dba2d480a03cd7220e1ead48c118926667fb5fdb53b409e4d01405984600201548560030160009054906101000a900460ff1660405161105e929190611627565b60405180910390a3505b50600101610e73565b5050565b6000808260600151600481111561108e5761108e61129f565b0361109b57506001919050565b6002826060015160048111156110b3576110b361129f565b036110c357506080015142101590565b6001826060015160048111156110db576110db61129f565b036110eb57506080015142101590565b6003826060015160048111156111035761110361129f565b0361112257506080015160009081526001602052604090205460ff1690565b60048260600151600481111561113a5761113a61129f565b0361115957506080015160009081526002602052604090205460ff1690565b506000919050565b634e487b7160e01b600052604160045260246000fd5b604051601f8201601f1916810167ffffffffffffffff811182821017156111a0576111a0611161565b604052919050565b600080600080600060a086880312156111c057600080fd5b853594506020808701356001600160a01b03811681146111df57600080fd5b94506040870135600581106111f357600080fd5b935060608701359250608087013567ffffffffffffffff8082111561121757600080fd5b818901915089601f83011261122b57600080fd5b81358181111561123d5761123d611161565b61124f601f8201601f19168501611177565b91508082528a8482850101111561126557600080fd5b80848401858401376000848284010152508093505050509295509295909350565b60006020828403121561129857600080fd5b5035919050565b634e487b7160e01b600052602160045260246000fd5b600581106112d357634e487b7160e01b600052602160045260246000fd5b9052565b6000815180845260005b818110156112fd576020818501810151868301820152016112e1565b506000602082860101526020601f19601f83011685010191505092915050565b6001600160a01b0388811682528716602082015260408101869052600061134760608301876112b5565b84608083015283151560a083015260e060c083015261136960e08301846112d7565b9998505050505050505050565b60208152600060018060a01b03808451166020840152806020850151166040840152506040830151606083015260608301516113b560808401826112b5565b50608083015160a083015260a0830151151560c083015260c083015160e0808401526113e56101008401826112d7565b949350505050565b6000602080838503121561140057600080fd5b823567ffffffffffffffff8082111561141857600080fd5b818501915085601f83011261142c57600080fd5b81358181111561143e5761143e611161565b8060051b915061144f848301611177565b818152918301840191848101908884111561146957600080fd5b938501935b838510156114875784358252938501939085019061146e565b98975050505050505050565b600181811c908216806114a757607f821691505b6020821081036114c757634e487b7160e01b600052602260045260246000fd5b50919050565b601f821115611519576000816000526020600020601f850160051c810160208610156114f65750805b601f850160051c820191505b8181101561151557828155600101611502565b5050505b505050565b815167ffffffffffffffff81111561153857611538611161565b61154c816115468454611493565b846114cd565b602080601f83116001811461158157600084156115695750858301515b600019600386901b1c1916600185901b178555611515565b600085815260208120601f198616915b828110156115b057888601518255948401946001909101908401611591565b50858210156115ce5787850151600019600388901b60f8161c191681555b5050505050600190811b01905550565b6000600182016115fe57634e487b7160e01b600052601160045260246000fd5b5060010190565b8381526060810161161960208301856112b5565b826040830152949350505050565b82815260408101610e6960208301846112b5565b634e487b7160e01b600052603260045260246000fdfea264697066735822122091f1f72635d02634dc41a021069c85b2a7bfe760ca8c3ca37f69bd100f069b3464736f6c63430008180033",
  "linkReferences": {},
  "deployedLinkReferences": {}
}