{
  "_format": "hh-sol-artifact-1",
  "contractName": "GiftEscrow",
  "sourceName": "contracts/GiftEscrow.sol",
  "abi": [
    {
      "inputs": [],
      "stateMutability": "nonpayable",
      "type": "constructor"
    },
    {
      "anonymous": false,
      "inputs": [
        {
          "indexed": true,
          "internalType": "bytes32",
          "name": "claimCode",
          "type": "bytes32"
        },
        {
          "indexed": false,
          "internalType": "enum GiftEscrow.ConditionType",
          "name": "conditionType",
          "type": "uint8"
        }
      ],
      "name": "ConditionSatisfied",
      "type": "event"
    },
    {
      "anonymous": false,
      "inputs": [
        {
          "indexed": true,
          "internalType": "bytes32",
          "name": "claimCode",
          "type": "bytes32"
        },
        {
          "indexed": true,
          "internalType": "address",
          "name": "recipient",
          "type": "address"
        },
        {
          "indexed": false,
          "internalType": "uint256",
          "name": "amount",
          "type": "uint256"
        }
      ],
      "name": "GiftClaimed",
      "type": "event"
    },
    {
      "anonymous": false,
      "inputs": [
        {
          "indexed": true,
          "internalType": "bytes32",
          "name": "claimCode",
          "type": "bytes32"
        },
        {
          "indexed": true,
          "internalType": "address",
          "name": "sender",
          "type": "address"
        },
        {
          "indexed": true,
          "internalType": "address",
          "name": "recipient",
          "type": "address"
        },
        {
          "indexed": false,
          "internalType": "uint256",
          "name": "amount",
          "type": "uint256"
        },
        {
          "indexed": false,
          "internalType": "uint256",
          "name": "unlockTime",
          "type": "uint256"
        },
        {
          "indexed": false,
          "internalType": "uint256",
          "name": "expirationTime",
          "type": "uint256"
        }
      ],
      "name": "GiftCreated",
      "type": "event"
    },
    {
      "anonymous": false,
      "inputs": [
        {
          "indexed": true,
          "internalType": "bytes32",
          "name": "claimCode",
          "type": "bytes32"
        },
        {
          "indexed": true,
          "internalType": "address",
          "name": "sender",
          "type": "address"
        },
        {
          "indexed": false,
          "internalType": "uint256",
          "name": "amount",
          "type": "uint256"
        }
      ],
      "name": "GiftRefunded",
      "type": "event"
    },
    {
      "inputs": [
        {
          "internalType": "address",
          "name": "",
          "type": "address"
        }
      ],
      "name": "balances",
      "outputs": [
        {
          "internalType": "uint256",
          "name": "",
          "type": "uint256"
        }
      ],
      "stateMutability": "view",
      "type": "function"
    },
    {
      "inputs": [
        {
          "internalType": "bytes32",
          "name": "claimCode",
          "type": "bytes32"
        }
      ],
      "name": "canClaim",
      "outputs": [
        {
          "internalType": "bool",
          "name": "",
          "type": "bool"
        }
      ],
      "stateMutability": "view",
      "type": "function"
    },
    {
      "inputs": [
        {
          "internalType": "bytes32",
          "name": "claimCode",
          "type": "bytes32"
        },
        {
          "internalType": "string",
          "name": "secret",
          "type": "string"
        }
      ],
      "name": "claimGift",
      "outputs": [],
      "stateMutability": "nonpayable",
      "type": "function"
    },
    {
      "inputs": [
        {
          "internalType": "bytes32",
          "name": "",
          "type": "bytes32"
        }
      ],
      "name": "conditions",
      "outputs": [
        {
          "internalType": "enum GiftEscrow.ConditionType",
          "name": "conditionType",
          "type": "uint8"
        },
        {
          "internalType": "uint256",
          "name": "triggerValue",
          "type": "uint256"
        },
        {
          "internalType": "bool",
          "name": "satisfied",
          "type": "bool"
        }
      ],
      "stateMutability": "view",
      "type": "function"
    },
    {
      "inputs": [
        {
          "internalType": "address",
          "name": "recipient",
          "type": "address"
        },
        {
          "internalType": "bytes32",
          "name": "claimCode",
          "type": "bytes32"
        },
        {
          "internalType": "uint256",
          "name": "unlockTime",
          "type": "uint256"
        },
        {
          "internalType": "uint256",
          "name": "expirationTime",
          "type": "uint256"
        },
        {
          "internalType": "bytes32",
          "name": "secretHash",
          "type": "bytes32"
        },
        {
          "internalType": "enum GiftEscrow.ConditionType",
          "name": "conditionType",
          "type": "uint8"
        },
        {
          "internalType": "uint256",
          "name": "triggerValue",
          "type": "uint256"
        },
        {
          "internalType": "string",
          "name": "message",
          "type": "string"
        }
      ],
      "name": "createGift",
      "outputs": [],
      "stateMutability": "payable",
      "type": "function"
    },
    {
      "inputs": [
        {
          "internalType": "bytes32",
          "name": "claimCode",
          "type": "bytes32"
        }
      ],
      "name": "getCondition",
      "outputs": [
        {
          "components": [
            {
              "internalType": "enum GiftEscrow.ConditionType",
              "name": "conditionType",
              "type": "uint8"
            },
            {
              "internalType": "uint256",
              "name": "triggerValue",
              "type": "uint256"
            },
            {
              "internalType": "bool",
              "name": "satisfied",
              "type": "bool"
            }
          ],
          "internalType": "struct GiftEscrow.Condition",
          "name": "",
          "type": "tuple"
        }
      ],
      "stateMutability": "view",
      "type": "function"
    },
    {
      "inputs": [
        {
          "internalType": "bytes32",
          "name": "claimCode",
          "type": "bytes32"
        }
      ],
      "name": "getGift",
      "outputs": [
        {
          "components": [
            {
              "internalType": "address",
              "name": "sender",
              "type": "address"
            },
            {
              "internalType": "address",
              "name": "recipient",
              "type": "address"
            },
            {
              "internalType": "uint256",
              "name": "amount",
              "type": "uint256"
            },
            {
              "internalType": "uint256",
              "name": "unlockTime",
              "type": "uint256"
            },
            {
              "internalType": "uint256",
              "name": "expirationTime",
              "type": "uint256"
            },
            {
              "internalType": "bytes32",
              "name": "secretHash",
              "type": "bytes32"
            },
            {
              "internalType": "bool",
              "name": "claimed",
              "type": "bool"
            },
            {
              "internalType": "bool",
              "name": "refunded",
              "type": "bool"
            },
            {
              "internalType": "string",
              "name": "message",
              "type": "string"
            }
          ],
          "internalType": "struct GiftEscrow.Gift",
          "name": "",
          "type": "tuple"
        }
      ],
      "stateMutability": "view",
      "type": "function"
    },
    {
      "inputs": [
        {
          "internalType": "bytes32",
          "name": "",
          "type": "bytes32"
        }
      ],
      "name": "gifts",
      "outputs": [
        {
          "internalType": "address",
          "name": "sender",
          "type": "address"
        },
        {
          "internalType": "address",
          "name": "recipient",
          "type": "address"
        },
        {
          "internalType": "uint256",
          "name": "amount",
          "type": "uint256"
        },
        {
          "internalType": "uint256",
          "name": "unlockTime",
          "type": "uint256"
        },
        {
          "internalType": "uint256",
          "name": "expirationTime",
          "type": "uint256"
        },
        {
          "internalType": "bytes32",
          "name": "secretHash",
          "type": "bytes32"
        },
        {
          "internalType": "bool",
          "name": "claimed",
          "type": "bool"
        },
        {
          "internalType": "bool",
          "name": "refunded",
          "type": "bool"
        },
        {
          "internalType": "string",
          "name": "message",
          "type": "string"
        }
      ],
      "stateMutability": "view",
      "type": "function"
    },
    {
      "inputs": [],
      "name": "owner",
      "outputs": [
        {
          "internalType": "address",
          "name": "",
          "type": "address"
        }
      ],
      "stateMutability": "view",
      "type": "function"
    },
    {
      "inputs": [
        {
          "internalType": "bytes32",
          "name": "claimCode",
          "type": "bytes32"
        }
      ],
      "name": "refundGift",
      "outputs": [],
      "stateMutability": "nonpayable",
      "type": "function"
    },
    {
      "inputs": [
        {
          "internalType": "bytes32",
          "name": "claimCode",
          "type": "bytes32"
        }
      ],
      "name": "satisfyCondition",
      "outputs": [],
      "stateMutability": "nonpayable",
      "type": "function"
    },
    {
      "inputs": [],
      "name": "totalClaimed",
      "outputs": [
        {
          "internalType": "uint256",
          "name": "",
          "type": "uint256"
        }
      ],
      "stateMutability": "view",
      "type": "function"
    },
    {
      "inputs": [],
      "name": "totalGifts",
      "outputs": [
        {
          "internalType": "uint256",
          "name": "",
          "type": "uint256"
        }
      ],
      "stateMutability": "view",
      "type": "function"
    },
    {
      "inputs": [],
      "name": "totalRefunded",
      "outputs": [
        {
          "internalType": "uint256",
          "name": "",
          "type": "uint256"
        }
      ],
      "stateMutability": "view",
      "type": "function"
    },
    {
      "inputs": [],
      "name": "withdraw",
      "outputs": [],
      "stateMutability": "nonpayable",
      "type": "function"
    }
  ],
  "bytecode": "0x608060405234801561001057600080fd5b50600380546001600160a01b03191633179055611b92806100326000396000f3fe6080604052600436106100e85760003560e01c8063a5f4d3631161008a578063da138e1211610059578063da138e12146102a6578063e4fb5155146102db578063eaaa98fa146102f1578063ee7463a71461032157600080fd5b8063a5f4d3631461023a578063c8b741bb1461024d578063d54ad2a11461027a578063d90829621461029057600080fd5b80635bfa8caf116100c65780635bfa8caf146101715780637b5970ed146101915780638da5cb5b146101b157806394dfeed0146101e957600080fd5b806327e235e3146100ed5780632934a0ee1461012d5780633ccfd60b1461015a575b600080fd5b3480156100f957600080fd5b5061011a6101083660046115c3565b60026020526000908152604090205481565b6040519081526020015b60405180910390f35b34801561013957600080fd5b5061014d6101483660046115de565b610341565b604051610124919061162f565b34801561016657600080fd5b5061016f6103c3565b005b34801561017d57600080fd5b5061016f61018c366004611701565b6104ee565b34801561019d57600080fd5b5061016f6101ac3660046115de565b610907565b3480156101bd57600080fd5b506003546101d1906001600160a01b031681565b6040516001600160a01b039091168152602001610124565b3480156101f557600080fd5b5061022b6102043660046115de565b600160208190526000918252604090912080549181015460029091015460ff928316921683565b60405161012493929190611748565b61016f61024836600461176c565b610a4d565b34801561025957600080fd5b5061026d6102683660046115de565b610e0e565b6040516101249190611851565b34801561028657600080fd5b5061011a60055481565b34801561029c57600080fd5b5061011a60065481565b3480156102b257600080fd5b506102c66102c13660046115de565b610f77565b604051610124999897969594939291906118fb565b3480156102e757600080fd5b5061011a60045481565b3480156102fd57600080fd5b5061031161030c3660046115de565b611060565b6040519015158152602001610124565b34801561032d57600080fd5b5061016f61033c3660046115de565b611213565b6040805160608101825260008082526020820181905291810191909152600082815260016020526040908190208151606081019092528054829060ff16600481111561038f5761038f6115f7565b60048111156103a0576103a06115f7565b81526001820154602082015260029091015460ff16151560409091015292915050565b6003546001600160a01b0316331461040e5760405162461bcd60e51b81526020600482015260096024820152682737ba1037bbb732b960b91b60448201526064015b60405180910390fd5b47806104555760405162461bcd60e51b81526020600482015260166024820152754e6f2062616c616e636520746f20776974686472617760501b6044820152606401610405565b6003546040516000916001600160a01b03169083908381818185875af1925050503d80600081146104a2576040519150601f19603f3d011682016040523d82523d6000602084013e6104a7565b606091505b50509050806104ea5760405162461bcd60e51b815260206004820152600f60248201526e15da5d1a191c985dc819985a5b1959608a1b6044820152606401610405565b5050565b60008281526020819052604090205482906001600160a01b03166105245760405162461bcd60e51b815260040161040590611960565b6000838152602081815260408083206001909252909120600682015460ff16156105875760405162461bcd60e51b815260206004820152601460248201527311da599d08185b1c9958591e4818db185a5b595960621b6044820152606401610405565b6006820154610100900460ff16156105d95760405162461bcd60e51b815260206004820152601560248201527411da599d08185b1c9958591e481c99599d5b991959605a1b6044820152606401610405565b600082600401541180156105f05750816004015442115b15610635576105fe85611353565b60405162461bcd60e51b815260206004820152600c60248201526b11da599d08195e1c1a5c995960a21b6044820152606401610405565b60018201546001600160a01b031633146106855760405162461bcd60e51b8152602060048201526011602482015270139bdd081d1a19481c9958da5c1a595b9d607a1b6044820152606401610405565b6003820154158061069a575081600301544210155b6106de5760405162461bcd60e51b815260206004820152601560248201527411da599d081b9bdd081e595d081d5b9b1bd8dad959605a1b6044820152606401610405565b6106e7856114a2565b6107335760405162461bcd60e51b815260206004820152601760248201527f436f6e646974696f6e206e6f74207361746973666965640000000000000000006044820152606401610405565b6004815460ff16600481111561074b5761074b6115f7565b036107bf5783604051602001610761919061198d565b604051602081830303815290604052805190602001208260050154146107bf5760405162461bcd60e51b8152602060048201526013602482015272496e76616c69642073656372657420636f646560681b6044820152606401610405565b60068201805460ff1916600117905560028083015483546001600160a01b03166000908152602092909252604082208054919290916107ff9084906119bf565b909155505060058054906000610814836119d8565b9091555050600182015460028301546040516000926001600160a01b031691908381818185875af1925050503d806000811461086c576040519150601f19603f3d011682016040523d82523d6000602084013e610871565b606091505b50509050806108b45760405162461bcd60e51b815260206004820152600f60248201526e151c985b9cd9995c8819985a5b1959608a1b6044820152606401610405565b600183015460028401546040519081526001600160a01b039091169087907f74bf63de1740c1f39a8d4d1c3c64115b4b95b2197e5579160492c4c4ffbb84949060200160405180910390a3505050505050565b60008181526020819052604090205481906001600160a01b031661093d5760405162461bcd60e51b815260040161040590611960565b6000828152602081905260409020600681015460ff16156109975760405162461bcd60e51b815260206004820152601460248201527311da599d08185b1c9958591e4818db185a5b595960621b6044820152606401610405565b6006810154610100900460ff16156109e95760405162461bcd60e51b815260206004820152601560248201527411da599d08185b1c9958591e481c99599d5b991959605a1b6044820152606401610405565b60008160040154118015610a005750806004015442115b610a3f5760405162461bcd60e51b815260206004820152601060248201526f11da599d081b9bdd08195e1c1a5c995960821b6044820152606401610405565b610a4883611353565b505050565b6001600160a01b038816610a975760405162461bcd60e51b8152602060048201526011602482015270125b9d985b1a59081c9958da5c1a595b9d607a1b6044820152606401610405565b60003411610ae75760405162461bcd60e51b815260206004820152601d60248201527f416d6f756e74206d7573742062652067726561746572207468616e20300000006044820152606401610405565b6000878152602081905260409020546001600160a01b031615610b425760405162461bcd60e51b81526020600482015260136024820152724769667420616c72656164792065786973747360681b6044820152606401610405565b841580610b4e57504285115b610b9a5760405162461bcd60e51b815260206004820152601c60248201527f45787069726174696f6e206d75737420626520696e20667574757265000000006044820152606401610405565b604051806101200160405280336001600160a01b03168152602001896001600160a01b031681526020013481526020018781526020018681526020018581526020016000151581526020016000151581526020018281525060008089815260200190815260200160002060008201518160000160006101000a8154816001600160a01b0302191690836001600160a01b0316021790555060208201518160010160006101000a8154816001600160a01b0302191690836001600160a01b0316021790555060408201518160020155606082015181600301556080820151816004015560a0820151816005015560c08201518160060160006101000a81548160ff02191690831515021790555060e08201518160060160016101000a81548160ff021916908315150217905550610100820151816007019081610cdc9190611a7b565b509050506040518060600160405280846004811115610cfd57610cfd6115f7565b8152602081018490526040016000856004811115610d1d57610d1d6115f7565b14905260008881526001602081905260409091208251815491929091839160ff1990911690836004811115610d5457610d546115f7565b021790555060208281015160018301556040928301516002928301805460ff19169115159190911790553360009081529190529081208054349290610d9a908490611b3b565b909155505060048054906000610daf836119d8565b909155505060408051348152602081018890529081018690526001600160a01b03891690339089907f5466f8c298228a902f56b085b2a419ff6ddc08ba2c06b3ed9e4a6d7418ab11489060600160405180910390a45050505050505050565b604080516101208101825260008082526020820181905291810182905260608082018390526080820183905260a0820183905260c0820183905260e08201929092526101008101919091526000828152602081815260409182902082516101208101845281546001600160a01b039081168252600183015416928101929092526002810154928201929092526003820154606082015260048201546080820152600582015460a0820152600682015460ff808216151560c08401526101009182900416151560e083015260078301805492939291840191610eee906119f1565b80601f0160208091040260200160405190810160405280929190818152602001828054610f1a906119f1565b8015610f675780601f10610f3c57610100808354040283529160200191610f67565b820191906000526020600020905b815481529060010190602001808311610f4a57829003601f168201915b5050505050815250509050919050565b600060208190529081526040902080546001820154600283015460038401546004850154600586015460068701546007880180546001600160a01b03988916999790981697959694959394929360ff8084169461010090940416929190610fdd906119f1565b80601f0160208091040260200160405190810160405280929190818152602001828054611009906119f1565b80156110565780601f1061102b57610100808354040283529160200191611056565b820191906000526020600020905b81548152906001019060200180831161103957829003601f168201915b5050505050905089565b60008181526020818152604080832081516101208101835281546001600160a01b039081168252600183015416938101939093526002810154918301919091526003810154606083015260048101546080830152600581015460a0830152600681015460ff808216151560c08501526101009182900416151560e084015260078201805485949392840191906110f5906119f1565b80601f0160208091040260200160405190810160405280929190818152602001828054611121906119f1565b801561116e5780601f106111435761010080835404028352916020019161116e565b820191906000526020600020905b81548152906001019060200180831161115157829003601f168201915b5050509190925250508151919250506001600160a01b03166111935750600092915050565b8060c00151156111a65750600092915050565b8060e00151156111b95750600092915050565b600081608001511180156111d05750806080015142115b156111de5750600092915050565b600081606001511180156111f55750806060015142105b156112035750600092915050565b61120c836114a2565b9392505050565b60008181526020819052604090205481906001600160a01b03166112495760405162461bcd60e51b815260040161040590611960565b6000828152600160205260409020600281015460ff16156112ac5760405162461bcd60e51b815260206004820152601b60248201527f436f6e646974696f6e20616c72656164792073617469736669656400000000006044820152606401610405565b6003546001600160a01b03163314806112c457503330145b6113015760405162461bcd60e51b815260206004820152600e60248201526d139bdd08185d5d1a1bdc9a5e995960921b6044820152606401610405565b60028101805460ff19166001179055805460405184917f90908d8b4036e20c5484521560e2a6895111623155b6c65da185b949093e204b916113469160ff1690611b4e565b60405180910390a2505050565b60008181526020818152604080832060068101805461ff00191661010017905560028082015482546001600160a01b03168652935290832080549193909161139c9084906119bf565b9091555050600680549060006113b1836119d8565b9091555050805460028201546040516000926001600160a01b031691908381818185875af1925050503d8060008114611406576040519150601f19603f3d011682016040523d82523d6000602084013e61140b565b606091505b50509050806114555760405162461bcd60e51b81526020600482015260166024820152751499599d5b99081d1c985b9cd9995c8819985a5b195960521b6044820152606401610405565b815460028301546040519081526001600160a01b039091169084907f587fbf623a437df0345194a66636112980e7e6980f1545ee1d4cb78216eb9e139060200160405180910390a3505050565b600081815260016020526040808220815160608101909252805483929190829060ff1660048111156114d6576114d66115f7565b60048111156114e7576114e76115f7565b81526001820154602082015260029091015460ff161515604090910152905060008151600481111561151b5761151b6115f7565b036115295750600192915050565b60018151600481111561153e5761153e6115f7565b03611550576020015142101592915050565b600281516004811115611565576115656115f7565b03611577576020015142101592915050565b60038151600481111561158c5761158c6115f7565b0361159e576020015142101592915050565b50600192915050565b80356001600160a01b03811681146115be57600080fd5b919050565b6000602082840312156115d557600080fd5b61120c826115a7565b6000602082840312156115f057600080fd5b5035919050565b634e487b7160e01b600052602160045260246000fd5b6005811061162b57634e487b7160e01b600052602160045260246000fd5b9052565b600060608201905061164282845161160d565b6020830151602083015260408301511515604083015292915050565b634e487b7160e01b600052604160045260246000fd5b600082601f83011261168557600080fd5b813567ffffffffffffffff808211156116a0576116a061165e565b604051601f8301601f19908116603f011681019082821181831017156116c8576116c861165e565b816040528381528660208588010111156116e157600080fd5b836020870160208301376000602085830101528094505050505092915050565b6000806040838503121561171457600080fd5b82359150602083013567ffffffffffffffff81111561173257600080fd5b61173e85828601611674565b9150509250929050565b60608101611756828661160d565b8360208301528215156040830152949350505050565b600080600080600080600080610100898b03121561178957600080fd5b611792896115a7565b97506020890135965060408901359550606089013594506080890135935060a0890135600581106117c257600080fd5b925060c0890135915060e089013567ffffffffffffffff8111156117e557600080fd5b6117f18b828c01611674565b9150509295985092959890939650565b60005b8381101561181c578181015183820152602001611804565b50506000910152565b6000815180845261183d816020860160208601611801565b601f01601f19169290920160200192915050565b6020815261186b6020820183516001600160a01b03169052565b6000602083015161188760408401826001600160a01b03169052565b506040830151606083015260608301516080830152608083015160a083015260a083015160c083015260c08301516118c360e084018215159052565b5060e08301516101006118d98185018315159052565b8401516101208481015290506118f3610140840182611825565b949350505050565b600061012060018060a01b03808d168452808c166020850152508960408401528860608401528760808401528660a084015285151560c084015284151560e08401528061010084015261195081840185611825565b9c9b505050505050505050505050565b60208082526013908201527211da599d08191bd95cc81b9bdd08195e1a5cdd606a1b604082015260600190565b6000825161199f818460208701611801565b9190910192915050565b634e487b7160e01b600052601160045260246000fd5b818103818111156119d2576119d26119a9565b92915050565b6000600182016119ea576119ea6119a9565b5060010190565b600181811c90821680611a0557607f821691505b602082108103611a2557634e487b7160e01b600052602260045260246000fd5b50919050565b601f821115610a48576000816000526020600020601f850160051c81016020861015611a545750805b601f850160051c820191505b81811015611a7357828155600101611a60565b505050505050565b815167ffffffffffffffff811115611a9557611a9561165e565b611aa981611aa384546119f1565b84611a2b565b602080601f831160018114611ade5760008415611ac65750858301515b600019600386901b1c1916600185901b178555611a73565b600085815260208120601f198616915b82811015611b0d57888601518255948401946001909101908401611aee565b5085821015611b2b5787850151600019600388901b60f8161c191681555b5050505050600190811b01905550565b808201808211156119d2576119d26119a9565b602081016119d2828461160d56fea264697066735822122044de3ad91572a94d84b60b0ac471e9f46fd8e321f061746f23fb35b9d16d504e64736f6c63430008180033",
  "linkReferences": {},
  "deployedLinkReferences": {}
}