{
  "_format": "hh-sol-artifact-1",
  "contractName": "RecurringGift",
  "sourceName": "contracts/RecurringGift.sol",
  "abi": [
    {
      "inputs": [],
      "stateMutability": "nonpayable",
      "type": "constructor"
    },
    {
      "anonymous": false,
      "inputs": [
        {
          "indexed": true,
          "internalType": "bytes32",
          "name": "scheduleId",
          "type": "bytes32"
        },
        {
          "indexed": true,
          "internalType": "address",
          "name": "recipient",
          "type": "address"
        },
        {
          "indexed": false,
          "internalType": "uint256",
          "name": "amount",
          "type": "uint256"
        },
        {
          "indexed": false,
          "internalType": "uint256",
          "name": "paymentNumber",
          "type": "uint256"
        }
      ],
      "name": "PaymentExecuted",
      "type": "event"
    },
    {
      "anonymous": false,
      "inputs": [
        {
          "indexed": true,
          "internalType": "bytes32",
          "name": "scheduleId",
          "type": "bytes32"
        },
        {
          "indexed": true,
          "internalType": "address",
          "name": "sender",
          "type": "address"
        }
      ],
      "name": "RecurringGiftCancelled",
      "type": "event"
    },
    {
      "anonymous": false,
      "inputs": [
        {
          "indexed": true,
          "internalType": "bytes32",
          "name": "scheduleId",
          "type": "bytes32"
        },
        {
          "indexed": true,
          "internalType": "address",
          "name": "sender",
          "type": "address"
        },
        {
          "indexed": true,
          "internalType": "address",
          "name": "recipient",
          "type": "address"
        },
        {
          "indexed": false,
          "internalType": "uint256",
          "name": "amount",
          "type": "uint256"
        },
        {
          "indexed": false,
          "internalType": "uint256",
          "name": "interval",
          "type": "uint256"
        },
        {
          "indexed": false,
          "internalType": "uint256",
          "name": "startTime",
          "type": "uint256"
        }
      ],
      "name": "RecurringGiftCreated",
      "type": "event"
    },
    {
      "inputs": [
        {
          "internalType": "bytes32[]",
          "name": "scheduleIds",
          "type": "bytes32[]"
        }
      ],
      "name": "batchExecutePayments",
      "outputs": [],
      "stateMutability": "nonpayable",
      "type": "function"
    },
    {
      "inputs": [
        {
          "internalType": "bytes32",
          "name": "scheduleId",
          "type": "bytes32"
        }
      ],
      "name": "cancelRecurringGift",
      "outputs": [],
      "stateMutability": "nonpayable",
      "type": "function"
    },
    {
      "inputs": [
        {
          "internalType": "bytes32",
          "name": "scheduleId",
          "type": "bytes32"
        },
        {
          "internalType": "address",
          "name": "recipient",
          "type": "address"
        },
        {
          "internalType": "uint256",
          "name": "amount",
          "type": "uint256"
        },
        {
          "internalType": "uint256",
          "name": "interval",
          "type": "uint256"
        },
        {
          "internalType": "uint256",
          "name": "startTime",
          "type": "uint256"
        },
        {
          "internalType": "uint256",
          "name": "endTime",
          "type": "uint256"
        },
        {
          "internalType": "uint256",
          "name": "maxPayments",
          "type": "uint256"
        },
        {
          "internalType": "string",
          "name": "message",
          "type": "string"
        }
      ],
      "name": "createRecurringGift",
      "outputs": [],
      "stateMutability": "payable",
      "type": "function"
    },
    {
      "inputs": [
        {
          "internalType": "bytes32",
          "name": "scheduleId",
          "type": "bytes32"
        }
      ],
      "name": "executePayment",
      "outputs": [],
      "stateMutability": "nonpayable",
      "type": "function"
    },
    {
      "inputs": [
        {
          "internalType": "bytes32",
          "name": "scheduleId",
          "type": "bytes32"
        }
      ],
      "name": "fundSchedule",
      "outputs": [],
      "stateMutability": "payable",
      "type": "function"
    },
    {
      "inputs": [
        {
          "internalType": "bytes32",
          "name": "scheduleId",
          "type": "bytes32"
        }
      ],
      "name": "getNextPaymentTime",
      "outputs": [
        {
          "internalType": "uint256",
          "name": "",
          "type": "uint256"
        }
      ],
      "stateMutability": "view",
      "type": "function"
    },
    {
      "inputs": [
        {
          "internalType": "bytes32",
          "name": "scheduleId",
          "type": "bytes32"
        }
      ],
      "name": "getSchedule",
      "outputs": [
        {
          "components": [
            {
              "internalType": "address",
              "name": "sender",
              "type": "address"
            },
            {
              "internalType": "address",
              "name": "recipient",
              "type": "address"
            },
            {
              "internalType": "uint256",
              "name": "amount",
              "type": "uint256"
            },
            {
              "internalType": "uint256",
              "name": "interval",
              "type": "uint256"
            },
            {
              "internalType": "uint256",
              "name": "startTime",
              "type": "uint256"
            },
            {
              "internalType": "uint256",
              "name": "endTime",
              "type": "uint256"
            },
            {
              "internalType": "uint256",
              "name": "totalPayments",
              "type": "uint256"
            },
            {
              "internalType": "uint256",
              "name": "maxPayments",
              "type": "uint256"
            },
            {
              "internalType": "bool",
              "name": "active",
              "type": "bool"
            },
            {
              "internalType": "string",
              "name": "message",
              "type": "string"
            }
          ],
          "internalType": "struct RecurringGift.RecurringGiftSchedule",
          "name": "",
          "type": "tuple"
        }
      ],
      "stateMutability": "view",
      "type": "function"
    },
    {
      "inputs": [
        {
          "internalType": "bytes32",
          "name": "scheduleId",
          "type": "bytes32"
        }
      ],
      "name": "isPaymentDue",
      "outputs": [
        {
          "internalType": "bool",
          "name": "",
          "type": "bool"
        }
      ],
      "stateMutability": "view",
      "type": "function"
    },
    {
      "inputs": [
        {
          "internalType": "bytes32",
          "name": "",
          "type": "bytes32"
        }
      ],
      "name": "lastPaymentTime",
      "outputs": [
        {
          "internalType": "uint256",
          "name": "",
          "type": "uint256"
        }
      ],
      "stateMutability": "view",
      "type": "function"
    },
    {
      "inputs": [],
      "name": "owner",
      "outputs": [
        {
          "internalType": "address",
          "name": "",
          "type": "address"
        }
      ],
      "stateMutability": "view",
      "type": "function"
    },
    {
      "inputs": [
        {
          "internalType": "bytes32",
          "name": "",
          "type": "bytes32"
        }
      ],
      "name": "schedules",
      "outputs": [
        {
          "internalType": "address",
          "name": "sender",
          "type": "address"
        },
        {
          "internalType": "address",
          "name": "recipient",
          "type": "address"
        },
        {
          "internalType": "uint256",
          "name": "amount",
          "type": "uint256"
        },
        {
          "internalType": "uint256",
          "name": "interval",
          "type": "uint256"
        },
        {
          "internalType": "uint256",
          "name": "startTime",
          "type": "uint256"
        },
        {
          "internalType": "uint256",
          "name": "endTime",
          "type": "uint256"
        },
        {
          "internalType": "uint256",
          "name": "totalPayments",
          "type": "uint256"
        },
        {
          "internalType": "uint256",
          "name": "maxPayments",
          "type": "uint256"
        },
        {
          "internalType": "bool",
          "name": "active",
          "type": "bool"
        },
        {
          "internalType": "string",
          "name": "message",
          "type": "string"
        }
      ],
      "stateMutability": "view",
      "type": "function"
    },
    {
      "inputs": [],
      "name": "totalPaymentsMade",
      "outputs": [
        {
          "internalType": "uint256",
          "name": "",
          "type": "uint256"
        }
      ],
      "stateMutability": "view",
      "type": "function"
    },
    {
      "inputs": [],
      "name": "totalSchedules",
      "outputs": [
        {
          "internalType": "uint256",
          "name": "",
          "type": "uint256"
        }
      ],
      "stateMutability": "view",
      "type": "function"
    }
  ],
  "bytecode": "0x608060405234801561001057600080fd5b50600280546001600160a01b0319163317905561195f806100326000396000f3fe6080604052600436106100c25760003560e01c8063968c0e0d1161007f578063d1e16bfa11610059578063d1e16bfa1461020d578063d59c273314610243578063dc56015e14610259578063ddb6595a1461028657600080fd5b8063968c0e0d146101c7578063a0a94a67146101da578063c603ff48146101ed57600080fd5b80630fe0bedb146100c75780633adc277a146100fc578063418bb260146101295780635fd523db1461014b5780638da5cb5b1461016b578063965720af146101a3575b600080fd5b3480156100d357600080fd5b506100e76100e23660046113b8565b6102a6565b60405190151581526020015b60405180910390f35b34801561010857600080fd5b5061011c6101173660046113b8565b6102b7565b6040516100f39190611417565b34801561013557600080fd5b506101496101443660046113b8565b610446565b005b34801561015757600080fd5b50610149610166366004611505565b610536565b34801561017757600080fd5b5060025461018b906001600160a01b031681565b6040516001600160a01b0390911681526020016100f3565b3480156101af57600080fd5b506101b960035481565b6040519081526020016100f3565b6101496101d53660046113b8565b6105e0565b6101496101e83660046115ab565b610709565b3480156101f957600080fd5b506101b96102083660046113b8565b610ae2565b34801561021957600080fd5b5061022d6102283660046113b8565b610c4d565b6040516100f39a99989796959493929190611699565b34801561024f57600080fd5b506101b960045481565b34801561026557600080fd5b506101b96102743660046113b8565b60016020526000908152604090205481565b34801561029257600080fd5b506101496102a13660046113b8565b610d3a565b60006102b182610f99565b92915050565b61032160405180610140016040528060006001600160a01b0316815260200160006001600160a01b03168152602001600081526020016000815260200160008152602001600081526020016000815260200160008152602001600015158152602001606081525090565b6000828152602081815260409182902082516101408101845281546001600160a01b039081168252600183015416928101929092526002810154928201929092526003820154606082015260048201546080820152600582015460a0820152600682015460c0820152600782015460e0820152600882015460ff161515610100820152600982018054919291610120840191906103bd90611704565b80601f01602080910402602001604051908101604052809291908181526020018280546103e990611704565b80156104365780601f1061040b57610100808354040283529160200191610436565b820191906000526020600020905b81548152906001019060200180831161041957829003601f168201915b5050505050815250509050919050565b60008181526020819052604090205481906001600160a01b03166104855760405162461bcd60e51b815260040161047c9061173e565b60405180910390fd5b6000828152602081905260409020600881015460ff166104dd5760405162461bcd60e51b81526020600482015260136024820152725363686564756c65206e6f742061637469766560681b604482015260640161047c565b6104e683610f99565b6105285760405162461bcd60e51b815260206004820152601360248201527214185e5b595b9d081b9bdd08191d59481e595d606a1b604482015260640161047c565b6105318361116e565b505050565b60005b81518110156105dc57600080600084848151811061055957610559611775565b6020026020010151815260200190815260200160002090508060080160009054906101000a900460ff1680156105ac57506105ac83838151811061059f5761059f611775565b6020026020010151610f99565b156105d3576105d38383815181106105c6576105c6611775565b602002602001015161116e565b50600101610539565b5050565b60008181526020819052604090205481906001600160a01b03166106165760405162461bcd60e51b815260040161047c9061173e565b600082815260208190526040902080546001600160a01b0316331461067d5760405162461bcd60e51b815260206004820152601760248201527f4e6f7420746865207363686564756c652073656e646572000000000000000000604482015260640161047c565b600881015460ff166106c75760405162461bcd60e51b81526020600482015260136024820152725363686564756c65206e6f742061637469766560681b604482015260640161047c565b600034116105315760405162461bcd60e51b815260206004820152600f60248201526e4d7573742073656e642066756e647360881b604482015260640161047c565b6001600160a01b0387166107535760405162461bcd60e51b8152602060048201526011602482015270125b9d985b1a59081c9958da5c1a595b9d607a1b604482015260640161047c565b600086116107a35760405162461bcd60e51b815260206004820152601d60248201527f416d6f756e74206d7573742062652067726561746572207468616e2030000000604482015260640161047c565b600085116107f35760405162461bcd60e51b815260206004820152601f60248201527f496e74657276616c206d7573742062652067726561746572207468616e203000604482015260640161047c565b8534101561084f5760405162461bcd60e51b8152602060048201526024808201527f496e73756666696369656e742066756e647320666f72206669727374207061796044820152631b595b9d60e21b606482015260840161047c565b6000888152602081905260409020546001600160a01b0316156108b45760405162461bcd60e51b815260206004820152601760248201527f5363686564756c6520616c726561647920657869737473000000000000000000604482015260640161047c565b8215806108c057508383115b6109165760405162461bcd60e51b815260206004820152602160248201527f456e642074696d65206d7573742062652061667465722073746172742074696d6044820152606560f81b606482015260840161047c565b604051806101400160405280336001600160a01b03168152602001886001600160a01b0316815260200187815260200186815260200185815260200184815260200160008152602001838152602001600115158152602001828152506000808a815260200190815260200160002060008201518160000160006101000a8154816001600160a01b0302191690836001600160a01b0316021790555060208201518160010160006101000a8154816001600160a01b0302191690836001600160a01b0316021790555060408201518160020155606082015181600301556080820151816004015560a0820151816005015560c0820151816006015560e082015181600701556101008201518160080160006101000a81548160ff021916908315150217905550610120820151816009019081610a5191906117db565b50505060008881526001602052604081208190556003805491610a73836118b1565b909155505060408051878152602081018790529081018590526001600160a01b0388169033908a907ff3f306511f5a001cbfaf9c5d452d74e3907a2d80fd9cdd966e6d72671736c64a9060600160405180910390a4428411610ad857610ad88861116e565b5050505050505050565b60008181526020818152604080832081516101408101835281546001600160a01b039081168252600183015416938101939093526002810154918301919091526003810154606083015260048101546080830152600581015460a0830152600681015460c0830152600781015460e0830152600881015460ff16151561010083015260098101805484939291610120840191610b7d90611704565b80601f0160208091040260200160405190810160405280929190818152602001828054610ba990611704565b8015610bf65780601f10610bcb57610100808354040283529160200191610bf6565b820191906000526020600020905b815481529060010190602001808311610bd957829003601f168201915b5050505050815250509050806101000151610c145750600092915050565b60008381526001602052604081205490819003610c3657506080015192915050565b6060820151610c4590826118ca565b949350505050565b600060208190529081526040902080546001820154600283015460038401546004850154600586015460068701546007880154600889015460098a0180546001600160a01b039a8b169b9a9099169997989697959694959394929360ff90921692610cb790611704565b80601f0160208091040260200160405190810160405280929190818152602001828054610ce390611704565b8015610d305780601f10610d0557610100808354040283529160200191610d30565b820191906000526020600020905b815481529060010190602001808311610d1357829003601f168201915b505050505090508a565b60008181526020819052604090205481906001600160a01b0316610d705760405162461bcd60e51b815260040161047c9061173e565b600082815260208190526040902080546001600160a01b0316331480610da057506002546001600160a01b031633145b610ddd5760405162461bcd60e51b815260206004820152600e60248201526d139bdd08185d5d1a1bdc9a5e995960921b604482015260640161047c565b600881015460ff16610e315760405162461bcd60e51b815260206004820152601a60248201527f5363686564756c6520616c72656164792063616e63656c6c6564000000000000604482015260640161047c565b60088101805460ff19169055478015610f5a57600782015460009015610e6c5782600601548360070154610e6591906118dd565b9050610e9e565b600583015415610e9e576000428460050154610e8891906118dd565b9050836003015481610e9a91906118f0565b9150505b6000836002015482610eb09190611912565b905082811115610ebd5750815b8015610f575783546040516000916001600160a01b03169083908381818185875af1925050503d8060008114610f0f576040519150601f19603f3d011682016040523d82523d6000602084013e610f14565b606091505b5050905080610f555760405162461bcd60e51b815260206004820152600d60248201526c1499599d5b990819985a5b1959609a1b604482015260640161047c565b505b50505b81546040516001600160a01b039091169085907fa3a7d6a6a0b9b7ecdde893cd9e311fbc9618c69e44bfe31093c136a563b9da0690600090a350505050565b60008181526020818152604080832081516101408101835281546001600160a01b039081168252600183015416938101939093526002810154918301919091526003810154606083015260048101546080830152600581015460a0830152600681015460c0830152600781015460e0830152600881015460ff1615156101008301526009810180548493929161012084019161103490611704565b80601f016020809104026020016040519081016040528092919081815260200182805461106090611704565b80156110ad5780601f10611082576101008083540402835291602001916110ad565b820191906000526020600020905b81548152906001019060200180831161109057829003601f168201915b50505050508152505090508061010001516110cb5750600092915050565b80608001514210156110e05750600092915050565b60008160a001511180156110f757508060a0015142115b156111055750600092915050565b60008160e0015111801561112157508060e001518160c0015110155b1561112f5750600092915050565b6000838152600160205260408120549081900361115457506080015142101592915050565b606082015161116390826118ca565b421015949350505050565b600081815260208190526040902060078101541580159061119757508060070154816006015410155b156111aa57600801805460ff1916905550565b600081600501541180156111c15750806005015442115b156111d457600801805460ff1916905550565b60008281526001602052604090205480158015906111ff575060038201546111fc90826118ca565b42105b1561120957505050565b816004015442101561121a57505050565b600182015460028301546040516000926001600160a01b031691908381818185875af1925050503d806000811461126d576040519150601f19603f3d011682016040523d82523d6000602084013e611272565b606091505b50509050806112c35760405162461bcd60e51b815260206004820152601760248201527f5061796d656e74207472616e73666572206661696c6564000000000000000000604482015260640161047c565b6006830180549060006112d5836118b1565b9091555050600084815260016020526040812042905560048054916112f9836118b1565b90915550506001830154600284015460068501546040516001600160a01b039093169287927f312e4c92db7cf027c0ee62a620577affea3fb8f77304ab79bd7db2d877f13dae9261135292918252602082015260400190565b60405180910390a36000836007015411801561137657508260070154836006015410155b156113885760088301805460ff191690555b600083600501541180156113a0575082600501544210155b156113b25760088301805460ff191690555b50505050565b6000602082840312156113ca57600080fd5b5035919050565b6000815180845260005b818110156113f7576020818501810151868301820152016113db565b506000602082860101526020601f19601f83011685010191505092915050565b602081526114316020820183516001600160a01b03169052565b6000602083015161144d60408401826001600160a01b03169052565b506040830151606083015260608301516080830152608083015160a083015260a083015160c083015260c083015160e083015260e08301516101008181850152808501519150506101206114a48185018315159052565b840151610140848101529050610c456101608401826113d1565b634e487b7160e01b600052604160045260246000fd5b604051601f8201601f1916810167ffffffffffffffff811182821017156114fd576114fd6114be565b604052919050565b6000602080838503121561151857600080fd5b823567ffffffffffffffff8082111561153057600080fd5b818501915085601f83011261154457600080fd5b813581811115611556576115566114be565b8060051b91506115678483016114d4565b818152918301840191848101908884111561158157600080fd5b938501935b8385101561159f57843582529385019390850190611586565b98975050505050505050565b600080600080600080600080610100898b0312156115c857600080fd5b883597506020808a01356001600160a01b03811681146115e757600080fd5b975060408a0135965060608a0135955060808a0135945060a08a0135935060c08a0135925060e08a013567ffffffffffffffff8082111561162757600080fd5b818c0191508c601f83011261163b57600080fd5b81358181111561164d5761164d6114be565b61165f601f8201601f191685016114d4565b91508082528d8482850101111561167557600080fd5b80848401858401376000848284010152508093505050509295985092959890939650565b600061014060018060a01b03808e168452808d166020850152508a60408401528960608401528860808401528760a08401528660c08401528560e0840152841515610100840152806101208401526116f3818401856113d1565b9d9c50505050505050505050505050565b600181811c9082168061171857607f821691505b60208210810361173857634e487b7160e01b600052602260045260246000fd5b50919050565b60208082526017908201527f5363686564756c6520646f6573206e6f74206578697374000000000000000000604082015260600190565b634e487b7160e01b600052603260045260246000fd5b601f821115610531576000816000526020600020601f850160051c810160208610156117b45750805b601f850160051c820191505b818110156117d3578281556001016117c0565b505050505050565b815167ffffffffffffffff8111156117f5576117f56114be565b611809816118038454611704565b8461178b565b602080601f83116001811461183e57600084156118265750858301515b600019600386901b1c1916600185901b1785556117d3565b600085815260208120601f198616915b8281101561186d5788860151825594840194600190910190840161184e565b508582101561188b5787850151600019600388901b60f8161c191681555b5050505050600190811b01905550565b634e487b7160e01b600052601160045260246000fd5b6000600182016118c3576118c361189b565b5060010190565b808201808211156102b1576102b161189b565b818103818111156102b1576102b161189b565b60008261190d57634e487b7160e01b600052601260045260246000fd5b500490565b80820281158282048414176102b1576102b161189b56fea264697066735822122040bf34262fca1f613405e7b917743d83a671588ebcf60f2cd826522b3c3d6fdf64736f6c63430008180033",
  "linkReferences": {},
  "deployedLinkReferences": {}
}