{
  "_format": "hh-sol-artifact-1",
  "contractName": "BulkGift",
  "sourceName": "contracts/BulkGift.sol",
  "abi": [
    {
      "inputs": [],
      "stateMutability": "nonpayable",
      "type": "constructor"
    },
    {
      "anonymous": false,
      "inputs": [
        {
          "indexed": true,
          "internalType": "bytes32",
          "name": "bulkGiftCode",
          "type": "bytes32"
        },
        {
          "indexed": true,
          "internalType": "bytes32",
          "name": "claimCode",
          "type": "bytes32"
        },
        {
          "indexed": true,
          "internalType": "address",
          "name": "recipient",
          "type": "address"
        },
        {
          "indexed": false,
          "internalType": "uint256",
          "name": "amount",
          "type": "uint256"
        }
      ],
      "name": "BulkGiftClaimed",
      "type": "event"
    },
    {
      "anonymous": false,
      "inputs": [
        {
          "indexed": true,
          "internalType": "bytes32",
          "name": "bulkGiftCode",
          "type": "bytes32"
        },
        {
          "indexed": true,
          "internalType": "address",
          "name": "sender",
          "type": "address"
        },
        {
          "indexed": false,
          "internalType": "uint256",
          "name": "totalAmount",
          "type": "uint256"
        },
        {
          "indexed": false,
          "internalType": "uint256",
          "name": "recipientCount",
          "type": "uint256"
        },
        {
          "indexed": false,
          "internalType": "uint256",
          "name": "threshold",
          "type": "uint256"
        }
      ],
      "name": "BulkGiftCreated",
      "type": "event"
    },
    {
      "anonymous": false,
      "inputs": [
        {
          "indexed": true,
          "internalType": "bytes32",
          "name": "bulkGiftCode",
          "type": "bytes32"
        },
        {
          "indexed": true,
          "internalType": "address",
          "name": "sender",
          "type": "address"
        },
        {
          "indexed": false,
          "internalType": "uint256",
          "name": "refundedAmount",
          "type": "uint256"
        }
      ],
      "name": "BulkGiftRefunded",
      "type": "event"
    },
    {
      "anonymous": false,
      "inputs": [
        {
          "indexed": true,
          "internalType": "bytes32",
          "name": "bulkGiftCode",
          "type": "bytes32"
        },
        {
          "indexed": false,
          "internalType": "uint256",
          "name": "claimedCount",
          "type": "uint256"
        },
        {
          "indexed": false,
          "internalType": "uint256",
          "name": "totalRecipients",
          "type": "uint256"
        }
      ],
      "name": "ThresholdReached",
      "type": "event"
    },
    {
      "inputs": [
        {
          "internalType": "bytes32",
          "name": "",
          "type": "bytes32"
        }
      ],
      "name": "campaigns",
      "outputs": [
        {
          "internalType": "address",
          "name": "sender",
          "type": "address"
        },
        {
          "internalType": "bytes32",
          "name": "bulkGiftCode",
          "type": "bytes32"
        },
        {
          "internalType": "uint256",
          "name": "totalAmount",
          "type": "uint256"
        },
        {
          "internalType": "uint256",
          "name": "totalRecipients",
          "type": "uint256"
        },
        {
          "internalType": "uint256",
          "name": "claimedCount",
          "type": "uint256"
        },
        {
          "internalType": "uint256",
          "name": "threshold",
          "type": "uint256"
        },
        {
          "internalType": "uint256",
          "name": "deadline",
          "type": "uint256"
        },
        {
          "internalType": "bool",
          "name": "active",
          "type": "bool"
        },
        {
          "internalType": "bool",
          "name": "thresholdReached",
          "type": "bool"
        }
      ],
      "stateMutability": "view",
      "type": "function"
    },
    {
      "inputs": [
        {
          "internalType": "bytes32",
          "name": "bulkGiftCode",
          "type": "bytes32"
        },
        {
          "internalType": "bytes32",
          "name": "claimCode",
          "type": "bytes32"
        }
      ],
      "name": "claimBulkGift",
      "outputs": [],
      "stateMutability": "nonpayable",
      "type": "function"
    },
    {
      "inputs": [
        {
          "internalType": "bytes32",
          "name": "",
          "type": "bytes32"
        },
        {
          "internalType": "bytes32",
          "name": "",
          "type": "bytes32"
        }
      ],
      "name": "claimCodeExists",
      "outputs": [
        {
          "internalType": "bool",
          "name": "",
          "type": "bool"
        }
      ],
      "stateMutability": "view",
      "type": "function"
    },
    {
      "inputs": [
        {
          "internalType": "bytes32",
          "name": "bulkGiftCode",
          "type": "bytes32"
        },
        {
          "internalType": "address[]",
          "name": "recipientAddresses",
          "type": "address[]"
        },
        {
          "internalType": "uint256[]",
          "name": "amounts",
          "type": "uint256[]"
        },
        {
          "internalType": "bytes32[]",
          "name": "claimCodes",
          "type": "bytes32[]"
        },
        {
          "internalType": "uint256",
          "name": "threshold",
          "type": "uint256"
        },
        {
          "internalType": "uint256",
          "name": "deadline",
          "type": "uint256"
        }
      ],
      "name": "createBulkGift",
      "outputs": [],
      "stateMutability": "payable",
      "type": "function"
    },
    {
      "inputs": [
        {
          "internalType": "bytes32",
          "name": "bulkGiftCode",
          "type": "bytes32"
        }
      ],
      "name": "getCampaign",
      "outputs": [
        {
          "components": [
            {
              "internalType": "address",
              "name": "sender",
              "type": "address"
            },
            {
              "internalType": "bytes32",
              "name": "bulkGiftCode",
              "type": "bytes32"
            },
            {
              "internalType": "uint256",
              "name": "totalAmount",
              "type": "uint256"
            },
            {
              "internalType": "uint256",
              "name": "totalRecipients",
              "type": "uint256"
            },
            {
              "internalType": "uint256",
              "name": "claimedCount",
              "type": "uint256"
            },
            {
              "internalType": "uint256",
              "name": "threshold",
              "type": "uint256"
            },
            {
              "internalType": "uint256",
              "name": "deadline",
              "type": "uint256"
            },
            {
              "internalType": "bool",
              "name": "active",
              "type": "bool"
            },
            {
              "internalType": "bool",
              "name": "thresholdReached",
              "type": "bool"
            }
          ],
          "internalType": "struct BulkGift.BulkGiftCampaign",
          "name": "",
          "type": "tuple"
        }
      ],
      "stateMutability": "view",
      "type": "function"
    },
    {
      "inputs": [
        {
          "internalType": "bytes32",
          "name": "bulkGiftCode",
          "type": "bytes32"
        }
      ],
      "name": "getClaimStatus",
      "outputs": [
        {
          "internalType": "uint256",
          "name": "claimedCount",
          "type": "uint256"
        },
        {
          "internalType": "uint256",
          "name": "totalRecipients",
          "type": "uint256"
        },
        {
          "internalType": "uint256",
          "name": "claimedPercentage",
          "type": "uint256"
        },
        {
          "internalType": "bool",
          "name": "thresholdReached",
          "type": "bool"
        }
      ],
      "stateMutability": "view",
      "type": "function"
    },
    {
      "inputs": [
        {
          "internalType": "bytes32",
          "name": "bulkGiftCode",
          "type": "bytes32"
        },
        {
          "internalType": "uint256",
          "name": "index",
          "type": "uint256"
        }
      ],
      "name": "getRecipient",
      "outputs": [
        {
          "components": [
            {
              "internalType": "address",
              "name": "recipient",
              "type": "address"
            },
            {
              "internalType": "uint256",
              "name": "amount",
              "type": "uint256"
            },
            {
              "internalType": "bytes32",
              "name": "claimCode",
              "type": "bytes32"
            },
            {
              "internalType": "bool",
              "name": "claimed",
              "type": "bool"
            }
          ],
          "internalType": "struct BulkGift.Recipient",
          "name": "",
          "type": "tuple"
        }
      ],
      "stateMutability": "view",
      "type": "function"
    },
    {
      "inputs": [
        {
          "internalType": "bytes32",
          "name": "bulkGiftCode",
          "type": "bytes32"
        }
      ],
      "name": "getRecipientCount",
      "outputs": [
        {
          "internalType": "uint256",
          "name": "",
          "type": "uint256"
        }
      ],
      "stateMutability": "view",
      "type": "function"
    },
    {
      "inputs": [],
      "name": "owner",
      "outputs": [
        {
          "internalType": "address",
          "name": "",
          "type": "address"
        }
      ],
      "stateMutability": "view",
      "type": "function"
    },
    {
      "inputs": [
        {
          "internalType": "bytes32",
          "name": "",
          "type": "bytes32"
        },
        {
          "internalType": "uint256",
          "name": "",
          "type": "uint256"
        }
      ],
      "name": "recipients",
      "outputs": [
        {
          "internalType": "address",
          "name": "recipient",
          "type": "address"
        },
        {
          "internalType": "uint256",
          "name": "amount",
          "type": "uint256"
        },
        {
          "internalType": "bytes32",
          "name": "claimCode",
          "type": "bytes32"
        },
        {
          "internalType": "bool",
          "name": "claimed",
          "type": "bool"
        }
      ],
      "stateMutability": "view",
      "type": "function"
    },
    {
      "inputs": [
        {
          "internalType": "bytes32",
          "name": "bulkGiftCode",
          "type": "bytes32"
        }
      ],
      "name": "refundBulkGift",
      "outputs": [],
      "stateMutability": "nonpayable",
      "type": "function"
    },
    {
      "inputs": [],
      "name": "totalCampaigns",
      "outputs": [
        {
          "internalType": "uint256",
          "name": "",
          "type": "uint256"
        }
      ],
      "stateMutability": "view",
      "type": "function"
    }
  ],
  "bytecode": "0x608060405234801561001057600080fd5b50600380546001600160a01b031916331790556118a4806100326000396000f3fe6080604052600436106100a75760003560e01c8063896a671511610064578063896a6715146101e15780638da5cb5b14610223578063961427dc1461025b5780639eca2f1e1461027b578063cabe045214610341578063e4604b0f1461043c57600080fd5b806302932f56146100ac57806305aac154146100d55780630cd0d0a9146101335780631b920e04146101555780632b6d2218146101825780636b54812a14610195575b600080fd5b3480156100b857600080fd5b506100c260045481565b6040519081526020015b60405180910390f35b3480156100e157600080fd5b506100f56100f036600461153e565b610487565b6040516100cc919081516001600160a01b03168152602080830151908201526040808301519082015260609182015115159181019190915260800190565b34801561013f57600080fd5b5061015361014e36600461153e565b610523565b005b34801561016157600080fd5b506100c2610170366004611560565b60009081526001602052604090205490565b610153610190366004611653565b6109ae565b3480156101a157600080fd5b506101b56101b036600461153e565b611012565b604080516001600160a01b039095168552602085019390935291830152151560608201526080016100cc565b3480156101ed57600080fd5b506102016101fc366004611560565b611065565b60408051948552602085019390935291830152151560608201526080016100cc565b34801561022f57600080fd5b50600354610243906001600160a01b031681565b6040516001600160a01b0390911681526020016100cc565b34801561026757600080fd5b50610153610276366004611560565b61111c565b34801561028757600080fd5b506102ef610296366004611560565b600060208190529081526040902080546001820154600283015460038401546004850154600586015460068701546007909701546001600160a01b03909616969495939492939192909160ff8082169161010090041689565b604080516001600160a01b03909a168a5260208a0198909852968801959095526060870193909352608086019190915260a085015260c0840152151560e08301521515610100820152610120016100cc565b34801561034d57600080fd5b5061042f61035c366004611560565b6040805161012081018252600080825260208201819052918101829052606081018290526080810182905260a0810182905260c0810182905260e08101829052610100810191909152506000908152602081815260409182902082516101208101845281546001600160a01b031681526001820154928101929092526002810154928201929092526003820154606082015260048201546080820152600582015460a0820152600682015460c082015260079091015460ff808216151560e0840152610100918290041615159082015290565b6040516100cc9190611764565b34801561044857600080fd5b5061047761045736600461153e565b600260209081526000928352604080842090915290825290205460ff1681565b60405190151581526020016100cc565b60408051608081018252600080825260208201819052918101829052606081019190915260008381526001602052604090208054839081106104cb576104cb6117dd565b600091825260209182902060408051608081018252600490930290910180546001600160a01b0316835260018101549383019390935260028301549082015260039091015460ff161515606082015290505b92915050565b60008281526020819052604090205482906001600160a01b03166105885760405162461bcd60e51b815260206004820152601760248201527610d85b5c185a59db88191bd95cc81b9bdd08195e1a5cdd604a1b60448201526064015b60405180910390fd5b6000838152602081905260409020600781015460ff166105e05760405162461bcd60e51b815260206004820152601360248201527243616d706169676e206e6f742061637469766560681b604482015260640161057f565b600681015415806105f5575080600601544211155b6106345760405162461bcd60e51b815260206004820152601060248201526f10d85b5c185a59db88195e1c1a5c995960821b604482015260640161057f565b600084815260016020526040812090600019905b825481101561068b5785838281548110610664576106646117dd565b906000526020600020906004020160020154036106835780915061068b565b600101610648565b5060001981036106d45760405162461bcd60e51b815260206004820152601460248201527310db185a5b4818dbd919481b9bdd08199bdd5b9960621b604482015260640161057f565b8181815481106106e6576106e66117dd565b600091825260209091206003600490920201015460ff161561073c5760405162461bcd60e51b815260206004820152600f60248201526e105b1c9958591e4818db185a5b5959608a1b604482015260640161057f565b81818154811061074e5761074e6117dd565b60009182526020909120600490910201546001600160a01b031633146107aa5760405162461bcd60e51b8152602060048201526011602482015270139bdd081d1a19481c9958da5c1a595b9d607a1b604482015260640161057f565b60018282815481106107be576107be6117dd565b600091825260208220600491820201600301805460ff1916931515939093179092559084018054916107ef83611809565b91905055506000828281548110610808576108086117dd565b60009182526020822060016004909202010154604051909250339083908381818185875af1925050503d806000811461085d576040519150601f19603f3d011682016040523d82523d6000602084013e610862565b606091505b50509050806108a55760405162461bcd60e51b815260206004820152600f60248201526e151c985b9cd9995c8819985a5b1959608a1b604482015260640161057f565b336001600160a01b031687897fe38865d6b791dff5d5a68c825af4df1cf9e268c839a9b4facb1b4bb01bd62a82856040516108e291815260200190565b60405180910390a46000856005015411801561090857506007850154610100900460ff16155b156109a45760008560030154866004015460646109259190611822565b61092f9190611839565b9050856005015481106109a25760078601805461ff001916610100179055610956896113a8565b887f82eb8742ab33a86f3ce5528625f04ea7d134f2b2947575afe732a57ca497d17287600401548860030154604051610999929190918252602082015260400190565b60405180910390a25b505b5050505050505050565b60008551116109ef5760405162461bcd60e51b815260206004820152600d60248201526c4e6f20726563697069656e747360981b604482015260640161057f565b8351855114610a4f5760405162461bcd60e51b815260206004820152602660248201527f526563697069656e747320616e6420616d6f756e7473206c656e677468206d696044820152650e6dac2e8c6d60d31b606482015260840161057f565b8251855114610ab35760405162461bcd60e51b815260206004820152602a60248201527f526563697069656e747320616e6420636c61696d20636f646573206c656e67746044820152690d040dad2e6dac2e8c6d60b31b606482015260840161057f565b6000868152602081905260409020546001600160a01b031615610b185760405162461bcd60e51b815260206004820152601760248201527f43616d706169676e20616c726561647920657869737473000000000000000000604482015260640161057f565b6064821115610b695760405162461bcd60e51b815260206004820152601860248201527f5468726573686f6c64206d757374206265203c3d203130300000000000000000604482015260640161057f565b6000805b8551811015610ba557858181518110610b8857610b886117dd565b602002602001015182610b9b919061185b565b9150600101610b6d565b5080341015610beb5760405162461bcd60e51b8152602060048201526012602482015271496e73756666696369656e742066756e647360701b604482015260640161057f565b604051806101200160405280336001600160a01b0316815260200188815260200182815260200187518152602001600081526020018481526020018381526020016001151581526020016000151581525060008089815260200190815260200160002060008201518160000160006101000a8154816001600160a01b0302191690836001600160a01b031602179055506020820151816001015560408201518160020155606082015181600301556080820151816004015560a0820151816005015560c0820151816006015560e08201518160070160006101000a81548160ff0219169083151502179055506101008201518160070160016101000a81548160ff02191690831515021790555090505060005b8651811015610fac5760006001600160a01b0316878281518110610d2457610d246117dd565b60200260200101516001600160a01b031603610d765760405162461bcd60e51b8152602060048201526011602482015270125b9d985b1a59081c9958da5c1a595b9d607a1b604482015260640161057f565b6000868281518110610d8a57610d8a6117dd565b602002602001015111610ddf5760405162461bcd60e51b815260206004820152601d60248201527f416d6f756e74206d7573742062652067726561746572207468616e2030000000604482015260640161057f565b600260008981526020019081526020016000206000868381518110610e0657610e066117dd565b60209081029190910181015182528101919091526040016000205460ff1615610e685760405162461bcd60e51b81526020600482015260146024820152734475706c696361746520636c61696d20636f646560601b604482015260640161057f565b600160008981526020019081526020016000206040518060800160405280898481518110610e9857610e986117dd565b60200260200101516001600160a01b03168152602001888481518110610ec057610ec06117dd565b60200260200101518152602001878481518110610edf57610edf6117dd565b60209081029190910181015182526000918101829052835460018082018655948352818320845160049092020180546001600160a01b0319166001600160a01b0390921691909117815583820151818601556040808501516002808401919091556060909501516003909201805460ff1916921515929092179091558c83529290529081208751909190889085908110610f7b57610f7b6117dd565b6020908102919091018101518252810191909152604001600020805460ff1916911515919091179055600101610cfe565b5060048054906000610fbd83611809565b909155505085516040805183815260208101929092528101849052339088907fc60e9f7fb1917c27025d2c76dbc83990298c089e34a318eddd4fb56745c312c89060600160405180910390a350505050505050565b6001602052816000526040600020818154811061102e57600080fd5b600091825260209091206004909102018054600182015460028301546003909301546001600160a01b039092169450925060ff1684565b60008181526020818152604080832081516101208101835281546001600160a01b03168152600182015493810193909352600281015491830191909152600381015460608301819052600482015460808401819052600583015460a0850152600683015460c085015260079092015460ff808216151560e0860152610100918290041615159084015290929091819083611100866064611822565b61110a9190611839565b92508061010001519150509193509193565b60008181526020819052604090205481906001600160a01b031661117c5760405162461bcd60e51b815260206004820152601760248201527610d85b5c185a59db88191bd95cc81b9bdd08195e1a5cdd604a1b604482015260640161057f565b6000828152602081905260409020600781015460ff166111d45760405162461bcd60e51b815260206004820152601360248201527243616d706169676e206e6f742061637469766560681b604482015260640161057f565b600081600601541180156111eb5750806006015442115b61122e5760405162461bcd60e51b815260206004820152601460248201527310d85b5c185a59db881b9bdd08195e1c1a5c995960621b604482015260640161057f565b60078101805460ff191690556000838152600160205260408120815b81548110156112ba57818181548110611265576112656117dd565b600091825260209091206003600490920201015460ff166112b257818181548110611292576112926117dd565b906000526020600020906004020160010154836112af919061185b565b92505b60010161124a565b50811561135e5782546040516000916001600160a01b03169084908381818185875af1925050503d806000811461130d576040519150601f19603f3d011682016040523d82523d6000602084013e611312565b606091505b505090508061135c5760405162461bcd60e51b81526020600482015260166024820152751499599d5b99081d1c985b9cd9995c8819985a5b195960521b604482015260640161057f565b505b82546040518381526001600160a01b039091169086907fb1f4081a38030f82d2f145e8cc12d060b11f6c239527645beeba3dee44eb25089060200160405180910390a35050505050565b6000818152602081815260408083206001909252822090915b8154811015611538578181815481106113dc576113dc6117dd565b600091825260209091206003600490920201015460ff1661153057600182828154811061140b5761140b6117dd565b600091825260208220600491820201600301805460ff19169315159390931790925590840180549161143c83611809565b91905055506000828281548110611455576114556117dd565b600091825260209091206004909102015483546001600160a01b0390911690849084908110611486576114866117dd565b90600052602060002090600402016001015460405160006040518083038185875af1925050503d80600081146114d8576040519150601f19603f3d011682016040523d82523d6000602084013e6114dd565b606091505b505090508061152e5760405162461bcd60e51b815260206004820152601760248201527f52656c65617365207472616e73666572206661696c6564000000000000000000604482015260640161057f565b505b6001016113c1565b50505050565b6000806040838503121561155157600080fd5b50508035926020909101359150565b60006020828403121561157257600080fd5b5035919050565b634e487b7160e01b600052604160045260246000fd5b604051601f8201601f1916810167ffffffffffffffff811182821017156115b8576115b8611579565b604052919050565b600067ffffffffffffffff8211156115da576115da611579565b5060051b60200190565b600082601f8301126115f557600080fd5b8135602061160a611605836115c0565b61158f565b8083825260208201915060208460051b87010193508684111561162c57600080fd5b602086015b848110156116485780358352918301918301611631565b509695505050505050565b60008060008060008060c0878903121561166c57600080fd5b8635955060208088013567ffffffffffffffff8082111561168c57600080fd5b818a0191508a601f8301126116a057600080fd5b81356116ae611605826115c0565b81815260059190911b8301840190848101908d8311156116cd57600080fd5b938501935b828510156117015784356001600160a01b03811681146116f25760008081fd5b825293850193908501906116d2565b9950505060408a013592508083111561171957600080fd5b6117258b848c016115e4565b965060608a013592508083111561173b57600080fd5b505061174989828a016115e4565b9350506080870135915060a087013590509295509295509295565b60006101208201905060018060a01b0383511682526020830151602083015260408301516040830152606083015160608301526080830151608083015260a083015160a083015260c083015160c083015260e0830151151560e0830152610100808401516117d58285018215159052565b505092915050565b634e487b7160e01b600052603260045260246000fd5b634e487b7160e01b600052601160045260246000fd5b60006001820161181b5761181b6117f3565b5060010190565b808202811582820484141761051d5761051d6117f3565b60008261185657634e487b7160e01b600052601260045260246000fd5b500490565b8082018082111561051d5761051d6117f356fea2646970667358221220106453929eb1abbfa0d17c8c020b518e20664f074fa1b47ec3a7b061fb0c840764736f6c63430008180033",
  "linkReferences": {},
  "deployedLinkReferences": {}
}