{
  "_format": "hh-sol-artifact-1",
  "contractName": "GroupGiftEscrow",
  "sourceName": "contracts/GroupGiftEscrow.sol",
  "abi": [
    {
      "inputs": [],
      "stateMutability": "nonpayable",
      "type": "constructor"
    },
    {
      "anonymous": false,
      "inputs": [
        {
          "indexed": true,
          "internalType": "bytes32",
          "name": "groupGiftId",
          "type": "bytes32"
        },
        {
          "indexed": true,
          "internalType": "address",
          "name": "contributor",
          "type": "address"
        },
        {
          "indexed": false,
          "internalType": "uint256",
          "name": "amount",
          "type": "uint256"
        },
        {
          "indexed": false,
          "internalType": "uint256",
          "name": "currentAmount",
          "type": "uint256"
        },
        {
          "indexed": false,
          "internalType": "uint256",
          "name": "targetAmount",
          "type": "uint256"
        }
      ],
      "name": "ContributionMade",
      "type": "event"
    },
    {
      "anonymous": false,
      "inputs": [
        {
          "indexed": true,
          "internalType": "bytes32",
          "name": "groupGiftId",
          "type": "bytes32"
        },
        {
          "indexed": true,
          "internalType": "address",
          "name": "initiator",
          "type": "address"
        },
        {
          "indexed": true,
          "internalType": "address",
          "name": "recipient",
          "type": "address"
        },
        {
          "indexed": false,
          "internalType": "uint256",
          "name": "targetAmount",
          "type": "uint256"
        },
        {
          "indexed": false,
          "internalType": "uint256",
          "name": "deadline",
          "type": "uint256"
        }
      ],
      "name": "GroupGiftCreated",
      "type": "event"
    },
    {
      "anonymous": false,
      "inputs": [
        {
          "indexed": true,
          "internalType": "bytes32",
          "name": "groupGiftId",
          "type": "bytes32"
        },
        {
          "indexed": true,
          "internalType": "address",
          "name": "recipient",
          "type": "address"
        },
        {
          "indexed": false,
          "internalType": "uint256",
          "name": "amount",
          "type": "uint256"
        }
      ],
      "name": "GroupGiftDistributed",
      "type": "event"
    },
    {
      "anonymous": false,
      "inputs": [
        {
          "indexed": true,
          "internalType": "bytes32",
          "name": "groupGiftId",
          "type": "bytes32"
        },
        {
          "indexed": true,
          "internalType": "address",
          "name": "contributor",
          "type": "address"
        },
        {
          "indexed": false,
          "internalType": "uint256",
          "name": "amount",
          "type": "uint256"
        }
      ],
      "name": "GroupGiftRefunded",
      "type": "event"
    },
    {
      "anonymous": false,
      "inputs": [
        {
          "indexed": true,
          "internalType": "bytes32",
          "name": "groupGiftId",
          "type": "bytes32"
        },
        {
          "indexed": true,
          "internalType": "address",
          "name": "recipient",
          "type": "address"
        },
        {
          "indexed": false,
          "internalType": "uint256",
          "name": "totalAmount",
          "type": "uint256"
        }
      ],
      "name": "ThresholdReached",
      "type": "event"
    },
    {
      "inputs": [
        {
          "internalType": "bytes32",
          "name": "groupGiftId",
          "type": "bytes32"
        }
      ],
      "name": "contribute",
      "outputs": [],
      "stateMutability": "payable",
      "type": "function"
    },
    {
      "inputs": [
        {
          "internalType": "bytes32",
          "name": "",
          "type": "bytes32"
        },
        {
          "internalType": "uint256",
          "name": "",
          "type": "uint256"
        }
      ],
      "name": "contributions",
      "outputs": [
        {
          "internalType": "address",
          "name": "contributor",
          "type": "address"
        },
        {
          "internalType": "uint256",
          "name": "amount",
          "type": "uint256"
        },
        {
          "internalType": "uint256",
          "name": "timestamp",
          "type": "uint256"
        },
        {
          "internalType": "bool",
          "name": "refunded",
          "type": "bool"
        }
      ],
      "stateMutability": "view",
      "type": "function"
    },
    {
      "inputs": [
        {
          "internalType": "bytes32",
          "name": "groupGiftId",
          "type": "bytes32"
        },
        {
          "internalType": "address",
          "name": "recipient",
          "type": "address"
        },
        {
          "internalType": "uint256",
          "name": "targetAmount",
          "type": "uint256"
        },
        {
          "internalType": "uint256",
          "name": "deadline",
          "type": "uint256"
        }
      ],
      "name": "createGroupGift",
      "outputs": [],
      "stateMutability": "nonpayable",
      "type": "function"
    },
    {
      "inputs": [
        {
          "internalType": "bytes32",
          "name": "groupGiftId",
          "type": "bytes32"
        },
        {
          "internalType": "uint256",
          "name": "index",
          "type": "uint256"
        }
      ],
      "name": "getContribution",
      "outputs": [
        {
          "components": [
            {
              "internalType": "address",
              "name": "contributor",
              "type": "address"
            },
            {
              "internalType": "uint256",
              "name": "amount",
              "type": "uint256"
            },
            {
              "internalType": "uint256",
              "name": "timestamp",
              "type": "uint256"
            },
            {
              "internalType": "bool",
              "name": "refunded",
              "type": "bool"
            }
          ],
          "internalType": "struct GroupGiftEscrow.Contribution",
          "name": "",
          "type": "tuple"
        }
      ],
      "stateMutability": "view",
      "type": "function"
    },
    {
      "inputs": [
        {
          "internalType": "bytes32",
          "name": "groupGiftId",
          "type": "bytes32"
        }
      ],
      "name": "getContributionCount",
      "outputs": [
        {
          "internalType": "uint256",
          "name": "",
          "type": "uint256"
        }
      ],
      "stateMutability": "view",
      "type": "function"
    },
    {
      "inputs": [
        {
          "internalType": "bytes32",
          "name": "groupGiftId",
          "type": "bytes32"
        }
      ],
      "name": "getGroupGift",
      "outputs": [
        {
          "components": [
            {
              "internalType": "address",
              "name": "initiator",
              "type": "address"
            },
            {
              "internalType": "address",
              "name": "recipient",
              "type": "address"
            },
            {
              "internalType": "uint256",
              "name": "targetAmount",
              "type": "uint256"
            },
            {
              "internalType": "uint256",
              "name": "currentAmount",
              "type": "uint256"
            },
            {
              "internalType": "uint256",
              "name": "deadline",
              "type": "uint256"
            },
            {
              "internalType": "uint256",
              "name": "contributorCount",
              "type": "uint256"
            },
            {
              "internalType": "bool",
              "name": "active",
              "type": "bool"
            },
            {
              "internalType": "bool",
              "name": "distributed",
              "type": "bool"
            }
          ],
          "internalType": "struct GroupGiftEscrow.GroupGift",
          "name": "",
          "type": "tuple"
        }
      ],
      "stateMutability": "view",
      "type": "function"
    },
    {
      "inputs": [
        {
          "internalType": "bytes32",
          "name": "groupGiftId",
          "type": "bytes32"
        }
      ],
      "name": "getProgress",
      "outputs": [
        {
          "internalType": "uint256",
          "name": "percentage",
          "type": "uint256"
        }
      ],
      "stateMutability": "view",
      "type": "function"
    },
    {
      "inputs": [
        {
          "internalType": "bytes32",
          "name": "",
          "type": "bytes32"
        }
      ],
      "name": "groupGifts",
      "outputs": [
        {
          "internalType": "address",
          "name": "initiator",
          "type": "address"
        },
        {
          "internalType": "address",
          "name": "recipient",
          "type": "address"
        },
        {
          "internalType": "uint256",
          "name": "targetAmount",
          "type": "uint256"
        },
        {
          "internalType": "uint256",
          "name": "currentAmount",
          "type": "uint256"
        },
        {
          "internalType": "uint256",
          "name": "deadline",
          "type": "uint256"
        },
        {
          "internalType": "uint256",
          "name": "contributorCount",
          "type": "uint256"
        },
        {
          "internalType": "bool",
          "name": "active",
          "type": "bool"
        },
        {
          "internalType": "bool",
          "name": "distributed",
          "type": "bool"
        }
      ],
      "stateMutability": "view",
      "type": "function"
    },
    {
      "inputs": [
        {
          "internalType": "bytes32",
          "name": "",
          "type": "bytes32"
        },
        {
          "internalType": "address",
          "name": "",
          "type": "address"
        }
      ],
      "name": "hasContributed",
      "outputs": [
        {
          "internalType": "bool",
          "name": "",
          "type": "bool"
        }
      ],
      "stateMutability": "view",
      "type": "function"
    },
    {
      "inputs": [],
      "name": "owner",
      "outputs": [
        {
          "internalType": "address",
          "name": "",
          "type": "address"
        }
      ],
      "stateMutability": "view",
      "type": "function"
    },
    {
      "inputs": [
        {
          "internalType": "bytes32",
          "name": "groupGiftId",
          "type": "bytes32"
        }
      ],
      "name": "refundGroupGift",
      "outputs": [],
      "stateMutability": "nonpayable",
      "type": "function"
    },
    {
      "inputs": [],
      "name": "totalGroupGifts",
      "outputs": [
        {
          "internalType": "uint256",
          "name": "",
          "type": "uint256"
        }
      ],
      "stateMutability": "view",
      "type": "function"
    }
  ],
  "bytecode": "0x608060405234801561001057600080fd5b50600380546001600160a01b0319163317905561134e806100326000396000f3fe6080604052600436106100a75760003560e01c80638da5cb5b116100645780638da5cb5b146102eb5780638ff62e82146103235780639f632ebd14610339578063aa880b4414610385578063d8a3950e1461043f578063e11bcbd31461048a57600080fd5b8063094b7c2f146100ac5780630f7e9dda146100ec5780630f89ff4114610238578063120dac5414610258578063278306e2146102b657806389cc81c1146102d8575b600080fd5b3480156100b857600080fd5b506100d96100c73660046111c9565b60009081526001602052604090205490565b6040519081526020015b60405180910390f35b3480156100f857600080fd5b506101c76101073660046111c9565b6040805161010081018252600080825260208201819052918101829052606081018290526080810182905260a0810182905260c0810182905260e081019190915250600090815260208181526040918290208251610100808201855282546001600160a01b039081168352600184015416938201939093526002820154938101939093526003810154606084015260048101546080840152600581015460a08401526006015460ff808216151560c085015291900416151560e082015290565b6040516100e3919060006101008201905060018060a01b038084511683528060208501511660208401525060408301516040830152606083015160608301526080830151608083015260a083015160a083015260c0830151151560c083015260e0830151151560e083015292915050565b34801561024457600080fd5b506100d96102533660046111c9565b6104aa565b34801561026457600080fd5b506102786102733660046111e2565b61055c565b6040516100e3919081516001600160a01b03168152602080830151908201526040808301519082015260609182015115159181019190915260800190565b3480156102c257600080fd5b506102d66102d1366004611220565b6105f8565b005b6102d66102e63660046111c9565b6108f1565b3480156102f757600080fd5b5060035461030b906001600160a01b031681565b6040516001600160a01b0390911681526020016100e3565b34801561032f57600080fd5b506100d960045481565b34801561034557600080fd5b506103596103543660046111e2565b610c37565b604080516001600160a01b039095168552602085019390935291830152151560608201526080016100e3565b34801561039157600080fd5b506103f56103a03660046111c9565b60006020819052908152604090208054600182015460028301546003840154600485015460058601546006909601546001600160a01b0395861696959094169492939192909160ff8082169161010090041688565b604080516001600160a01b03998a168152989097166020890152958701949094526060860192909252608085015260a0840152151560c0830152151560e0820152610100016100e3565b34801561044b57600080fd5b5061047a61045a36600461125b565b600260209081526000928352604080842090915290825290205460ff1681565b60405190151581526020016100e3565b34801561049657600080fd5b506102d66104a53660046111c9565b610c8a565b6000818152602081815260408083208151610100808201845282546001600160a01b0390811683526001840154169482019490945260028201549281018390526003820154606082015260048201546080820152600582015460a082015260069091015460ff808216151560c0840152939004909216151560e083015282036105365750600092915050565b6040810151606082015161054b90606461129d565b61055591906112b4565b9392505050565b60408051608081018252600080825260208201819052918101829052606081019190915260008381526001602052604090208054839081106105a0576105a06112d6565b600091825260209182902060408051608081018252600490930290910180546001600160a01b0316835260018101549383019390935260028301549082015260039091015460ff161515606082015290505b92915050565b6001600160a01b0383166106475760405162461bcd60e51b8152602060048201526011602482015270125b9d985b1a59081c9958da5c1a595b9d607a1b60448201526064015b60405180910390fd5b600082116106a35760405162461bcd60e51b8152602060048201526024808201527f54617267657420616d6f756e74206d75737420626520677265617465722074686044820152630616e20360e41b606482015260840161063e565b8015806106af57504281115b6106fb5760405162461bcd60e51b815260206004820152601a60248201527f446561646c696e65206d75737420626520696e20667574757265000000000000604482015260640161063e565b6000848152602081905260409020546001600160a01b0316156107605760405162461bcd60e51b815260206004820152601960248201527f47726f7570206769667420616c72656164792065786973747300000000000000604482015260640161063e565b604051806101000160405280336001600160a01b03168152602001846001600160a01b0316815260200183815260200160008152602001828152602001600081526020016001151581526020016000151581525060008086815260200190815260200160002060008201518160000160006101000a8154816001600160a01b0302191690836001600160a01b0316021790555060208201518160010160006101000a8154816001600160a01b0302191690836001600160a01b0316021790555060408201518160020155606082015181600301556080820151816004015560a0820151816005015560c08201518160060160006101000a81548160ff02191690831515021790555060e08201518160060160016101000a81548160ff0219169083151502179055509050506004600081548092919061089e906112ec565b909155505060408051838152602081018390526001600160a01b03851691339187917fc21afb4cc6df8d4e66e2a3b249433748230e5218b78b9aee7e33e9a1d01642a6910160405180910390a450505050565b60008181526020819052604090205481906001600160a01b03166109535760405162461bcd60e51b815260206004820152601960248201527811dc9bdd5c0819da599d08191bd95cc81b9bdd08195e1a5cdd603a1b604482015260640161063e565b6000828152602081905260409020600681015460ff166109ad5760405162461bcd60e51b815260206004820152601560248201527447726f75702067696674206e6f742061637469766560581b604482015260640161063e565b6006810154610100900460ff1615610a075760405162461bcd60e51b815260206004820152601e60248201527f47726f7570206769667420616c72656164792064697374726962757465640000604482015260640161063e565b60003411610a635760405162461bcd60e51b815260206004820152602360248201527f436f6e747269627574696f6e206d75737420626520677265617465722074686160448201526206e20360ec1b606482015260840161063e565b60048101541580610a78575080600401544211155b610ab95760405162461bcd60e51b815260206004820152601260248201527111dc9bdd5c0819da599d08195e1c1a5c995960721b604482015260640161063e565b60008381526001602081815260408084208151608081018352338082523482860190815242838601908152606084018981528554808a018755958a52878a209451600490960290940180546001600160a01b0319166001600160a01b03909616959095178555905196840196909655945160028084019190915590516003909201805460ff191692151592909217909155878552825280842092845291905290205460ff16610b9c5760008381526002602090815260408083203384529091528120805460ff1916600117905560058201805491610b96836112ec565b91905055505b34816003016000828254610bb09190611305565b909155505060038101546002820154604080513481526020810193909352820152339084907f6a1373fa7ba1bec3888b21f58e5f2a681e0ed2e5b7db7c0a174fa8467e64af189060600160405180910390a38060020154816003015410158015610c2457506006810154610100900460ff16155b15610c3257610c3283611065565b505050565b60016020528160005260406000208181548110610c5357600080fd5b600091825260209091206004909102018054600182015460028301546003909301546001600160a01b039092169450925060ff1684565b60008181526020819052604090205481906001600160a01b0316610cec5760405162461bcd60e51b815260206004820152601960248201527811dc9bdd5c0819da599d08191bd95cc81b9bdd08195e1a5cdd603a1b604482015260640161063e565b6000828152602081905260409020600681015460ff16610d465760405162461bcd60e51b815260206004820152601560248201527447726f75702067696674206e6f742061637469766560581b604482015260640161063e565b6006810154610100900460ff1615610da05760405162461bcd60e51b815260206004820152601e60248201527f47726f7570206769667420616c72656164792064697374726962757465640000604482015260640161063e565b60008160040154118015610db75750806004015442115b610df95760405162461bcd60e51b8152602060048201526013602482015272111958591b1a5b99481b9bdd081c185cdcd959606a1b604482015260640161063e565b8060020154816003015410610e505760405162461bcd60e51b815260206004820181905260248201527f5468726573686f6c6420726561636865642c2063616e6e6f7420726566756e64604482015260640161063e565b60068101805460ff191690556000838152600160205260408120905b815481101561105e57818181548110610e8757610e876112d6565b600091825260209091206003600490920201015460ff16611056576001828281548110610eb657610eb66112d6565b906000526020600020906004020160030160006101000a81548160ff0219169083151502179055506000828281548110610ef257610ef26112d6565b600091825260209091206004909102015483546001600160a01b0390911690849084908110610f2357610f236112d6565b90600052602060002090600402016001015460405160006040518083038185875af1925050503d8060008114610f75576040519150601f19603f3d011682016040523d82523d6000602084013e610f7a565b606091505b5050905080610fc45760405162461bcd60e51b81526020600482015260166024820152751499599d5b99081d1c985b9cd9995c8819985a5b195960521b604482015260640161063e565b828281548110610fd657610fd66112d6565b600091825260209091206004909102015483546001600160a01b039091169087907f75bacbec713b578c0d2286d1a312d1dc31867bf3756745770a8d292e799c4f7a9086908690811061102b5761102b6112d6565b90600052602060002090600402016001015460405161104c91815260200190565b60405180910390a3505b600101610e6c565b5050505050565b60008181526020819052604080822060068101805461ffff19166101001790556001810154600382015492519193926001600160a01b03909116918381818185875af1925050503d80600081146110d8576040519150601f19603f3d011682016040523d82523d6000602084013e6110dd565b606091505b505090508061112e5760405162461bcd60e51b815260206004820152601c60248201527f446973747269627574696f6e207472616e73666572206661696c656400000000604482015260640161063e565b600182015460038301546040519081526001600160a01b039091169084907f71b960a395925520e5457df3642bdb8e4645858956eed9440cd1bfe5346640fa9060200160405180910390a3600182015460038301546040519081526001600160a01b039091169084907f5ccf04fa2ce728e8188abb155b6976c62929fe6bf04a2b003eee67c22d8b60929060200160405180910390a3505050565b6000602082840312156111db57600080fd5b5035919050565b600080604083850312156111f557600080fd5b50508035926020909101359150565b80356001600160a01b038116811461121b57600080fd5b919050565b6000806000806080858703121561123657600080fd5b8435935061124660208601611204565b93969395505050506040820135916060013590565b6000806040838503121561126e57600080fd5b8235915061127e60208401611204565b90509250929050565b634e487b7160e01b600052601160045260246000fd5b80820281158282048414176105f2576105f2611287565b6000826112d157634e487b7160e01b600052601260045260246000fd5b500490565b634e487b7160e01b600052603260045260246000fd5b6000600182016112fe576112fe611287565b5060010190565b808201808211156105f2576105f261128756fea264697066735822122032f8f0af23f750c68c4298f5f9410786045dd270fe92d25b8f10972e3e24032264736f6c63430008180033",
  "linkReferences": {},
  "deployedLinkReferences": {}
}